:100000000C94BD000C94E5000C94E5000C94E50004
:100010000C94E5000C94E5000C94E5000C94E500CC
:100020000C94E5000C94E5000C94E5000C94E500BC
:100030000C94E5000C94E5000C94E5000C94E500AC
:100040000C94A5060C94E5000C9473060C944D06D4
:100050000C94E5000C94E5000C94E5000C94E5008C
:100060000C94E5000C94E50008000000BE922449C1
:10007000123EABAAAA2ABECDCCCC4C3E00000080DA
:10008000BEABAAAAAA3E00000000BF000000803F4D
:100090000000000000084178D3BB4387D1133D190D
:1000A0000E3CC3BD4282AD2B3E68EC8276BED98F3A
:1000B000E1A93E4C80EFFFBE01C4FF7F3F0000007E
:1000C000000007634236B79BD8A71A39685618AEA6
:1000D000BAAB558C1D3CB7CC5763BD6DEDFD753E7D
:1000E000F6177231BF000000803FCDCCCC3D0AD75F
:1000F000233C17B7D13877CC2B329595E6241FB126
:100100004F0A0000803FCDCCCC3D6F12833A95BFA3
:10011000D6337D1D9026B3CE010C00002041000097
:10012000C84200401C4620BCBE4CCA1B0E5AAEC57D
:100130009D7400000000230026002900000000003C
:10014000250028002B0000000000240027002A00C2
:10015000040404040404040402020202020203036D
:100160000303030301020408102040800102040875
:100170001020010204081020340711241FBECFEF05
:10018000D8E0DEBFCDBF11E0A0E0B1E0E2E2FBE1EC
:1001900002C005900D92A434B107D9F722E0A4E47F
:1001A000B1E001C01D92AC31B207E1F710E0CDEB38
:1001B000D0E004C02197FE010E94800DCC3BD10706
:1001C000C9F70E9473070C948F0D0C940000CF9315
:1001D000DF9390E0FC01EC59FE4F2491805B9E4F31
:1001E000FC0184918823C1F090E0880F991FFC01E5
:1001F000EA5BFE4FC591D491FC01E45CFE4FA591F2
:10020000B4919FB7F8948881E22FE0958E2388837C
:100210008C91E823EC939FBFDF91CF910895AF922B
:10022000BF92CF92DF92EF92FF920F931F93CF93E3
:10023000DF936C017B018B01040F151FEB015E0145
:10024000AE18BF08C017D10759F06991D601ED91DA
:10025000FC910190F081E02DC6010995892B79F779
:10026000C501DF91CF911F910F91FF90EF90DF902B
:10027000CF90BF90AF900895FC01538D448D252FF2
:1002800030E0842F90E0821B930B541710F0CF9630
:10029000089501970895FC01918D828D981761F062
:1002A000A28DAE0FBF2FB11D5D968C91928D9F5F79
:1002B0009F73928F90E008958FEF9FEF0895FC0158
:1002C000918D828D981731F0828DE80FF11D858D0B
:1002D00090E008958FEF9FEF0895FC01918D228D9E
:1002E000892F90E0805C9F4F821B91098F73992723
:1002F000089589E591E00E946D0121E0892B09F4C0
:1003000020E0822F089580E090E0892B29F00E9460
:10031000790181110C9400000895FC01A48DA80FAF
:10032000B92FB11DA35ABF4F2C91848D90E0019637
:100330008F739927848FA689B7892C93A089B18957
:100340008C91837080648C93938D848D981306C0F8
:100350000288F389E02D80818F7D80830895EF925C
:10036000FF920F931F93CF93DF93EC0181E0888F6F
:100370009B8D8C8D98131AC0E889F989808185FF3F
:1003800015C09FB7F894EE89FF896083E889F989E1
:1003900080818370806480839FBF81E090E0DF91E3
:1003A000CF911F910F91FF90EF900895F62E0B8D36
:1003B00010E00F5F1F4F0F731127E02E8C8D8E11F1
:1003C0000CC00FB607FCFACFE889F989808185FF58
:1003D000F5CFCE010E948D01F1CFEB8DEC0FFD2FFB
:1003E000F11DE35AFF4FF0829FB7F8940B8FEA8913
:1003F000FB8980818062CFCFCF93DF93EC01888D22
:100400008823B9F0AA89BB89E889F9898C9185FD8F
:1004100003C0808186FD0DC00FB607FCF7CF8C911D
:1004200085FFF2CF808185FFEDCFCE010E948D0147
:10043000E9CFDF91CF9108958E3008F08E5087700C
:10044000806480937C0080917A00806480937A003D
:1004500080917A0086FDFCCF8091780090917900A0
:1004600008953FB7F8948091490190914A01A09175
:100470004B01B0914C0126B5A89B05C02F3F19F048
:100480000196A11DB11D3FBFBA2FA92F982F882714
:10049000BC01CD01620F711D811D911D42E0660FEF
:1004A000771F881F991F4A95D1F70895CF93DF933F
:1004B000EC0188819981DC01ED91FC910190F08142
:1004C000E02D09952A813B81820F931F9B838A83AC
:1004D000DF91CF910895CF93DF93EC0188819981CB
:1004E000DC01ED91FC910280F381E02D09952A81D8
:1004F0003B81820F931F9B838A83DF91CF91089565
:100500008F929F92AF92BF92CF92DF92EF92FF9223
:100510000F931F93CF93DF93CDB7DEB766970FB6D8
:10052000F894DEBF0FBECDBF6C018E01095E1F4F78
:1005300078018AE0882E912CA12CB12CCB01BA0134
:10054000A50194010E945E0D942F852F605DF80136
:1005500062938F01A901692F782F4115510561051B
:10056000710561F7A7014E1B5F0BBF01C6010E9419
:100570006B0266960FB6F894DEBF0FBECDBFDF915B
:10058000CF911F910F91FF90EF90DF90CF90BF9090
:10059000AF909F908F900895EF92FF920F931F93CB
:1005A000CF93DF93EC017B0162E20E945602870148
:1005B000F80161918F01662391F0E2E1F1E0F280B0
:1005C000FF2049F0329681816813F9CF6CE5CE01A6
:1005D0000E9456026F2DCE010E945602E9CF62E2C0
:1005E000CE01DF91CF911F910F91FF90EF900C946E
:1005F0005602FC012581222339F0F8E02F029001F8
:100600001124820F931F089590E080E008950F93C6
:100610001F93CF93DF938C0190910302892F8F77E3
:1006200061F490789062909303021092000210920D
:10063000FF0110920202109201028091030285FDD7
:1006400008C0D0E0C0E0CE01DF91CF911F910F91A3
:10065000089501151105A9F3C091FF01D091000281
:100660002097B9F16E817F816017710761F3611581
:10067000710529F0C8010E94860D892B21F3CE0156
:100680000E94F902EC01ECCFE9012897D093FB011D
:10069000C093FA012097A9F2E0910102F0910202C1
:1006A000309791F0CE018E1B9F0B23E09595879597
:1006B0002A95E1F78583D0930202C09301021D823F
:1006C0001C821F830E83BFCFD0930002C093FF0113
:1006D000F2CF2091FA013091FB018091F8019091C5
:1006E000F90108962817390778F681E08093FE0112
:1006F000AACF0F931F93762F89019A0190E0FC01F6
:10070000EC59FE4F6491FC01E05BFE4FE4917111E6
:10071000762FF0E0EE0FFF1FEE5CFE4F8591949177
:10072000472F0E94EF06611571058105910529F09B
:100730006F5F7F4F8F4F9F4F9F701F910F91089555
:10074000FB0101900020E9F73197AF01461B570BE1
:100750000C946B022F923F924F925F926F927F9216
:100760008F929F92AF92BF92CF92DF92EF92FF92C1
:100770000F931F93CF93DF93CDB7DEB76C970FB670
:10078000F894DEBF0FBECDBF8C011B01DC011496B7
:100790008C9114978F77863009F474C278F4823084
:1007A000B0F0843008F04CC212964D915C911397D2
:1007B0006D917C91C1010E946B0226C28C3069F15F
:1007C00060F4883009F459C28A3009F43FC263E208
:1007D00071E0C1010E94A003E5C1803209F4ECC1BF
:1007E0008034A9F76BE5C1010E945602F80100812F
:1007F00011810115110509F4DAC1B101C8010E9486
:10080000AA03C8010E94F9028C01892B09F4CFC107
:100810006CE2C1010E945602ECCFF801C080D18089
:10082000E280F380A7019601C701B6010E94F40996
:100830008111CDCF20E030E0A901C701B6010E94AF
:10084000F409882379F0A7019601C701B6010E9437
:1008500088099B01AC01C701B6010E94F4098823F5
:1008600009F4B5CF20E030E0A901C701B6010E942C
:10087000F40987FF08C06DE2C1010E945602F7FA31
:10088000F094F7F8F09420E836E948E15BE4C7011A
:10089000B6010E94530B87FD81C074E1A72EB12CD5
:1008A00000E210E0188E1F8AF501E65EFE4F2591EA
:1008B000359145915491C701B6010E94530B87FDB4
:1008C00013C0F501E651FF4F2591359145915491A3
:1008D000C701B6010E94A80B6B017C012F89388DDE
:1008E000200F311F388F2F8B1595079534E0A31AF1
:1008F000B1088CEFA8168FEFB806B1F655245A94BC
:1009000020E030E0A901C701B6010E94530B181680
:100910000CF04BC02CEA35EC47E257E3C701B601B7
:100920000E94F40918160CF440C0A52DB4E0AB02E7
:10093000C0011124912C812CFC01EE5FFE4F3F0180
:100940009C01265E3E4F59013FEF531671F1F301B2
:10095000E80DF91D6591759185919491A701960116
:100960000E94530B18169CF4F501E80DF91D259112
:10097000359145915491C701B6010E94A80B6B01B6
:100980007C018F89988D801B910B988F8F8B15958B
:1009900007955A9494E0891A9108D6CF00E210E0A6
:1009A00055E0552E188E1F8AABCFC701B6010E94A5
:1009B000720A4B015C012B013C0106E080E492E4E9
:1009C000AFE0B0E0898F9A8FAB8FBC8F102F0150B2
:1009D0009AE04916510461047104C8F0698D7A8D5A
:1009E0008B8D9C8D2AE030E040E050E00E945E0D4F
:1009F000298F3A8F4B8F5C8FC301B2012AE030E020
:100A000040E050E00E945E0D29013A01DFCFC501B0
:100A1000B4010E94A10A9B01AC01C701B6010E946A
:100A200087096B017C01698D7A8D8B8D9C8D0E946D
:100A3000A10A9B01AC01C701B6010E94A80B2B01C2
:100A40003C010E94720A6B017C010E94A10A9B0179
:100A5000AC01C301B2010E9487099B01AC010E9455
:100A600088090E94720AC60ED71EE81EF91E898DDB
:100A70009A8DAB8DBC8DC816D906EA06FB06D8F058
:100A80009FEF891A990AA90AB90AAF89B88DAB2BC9
:100A900039F1BAE08B169104A104B10408F1EF8991
:100AA000F88D3196F88FEF8BC12CD12C7601812CEB
:100AB000912C540183942AE0422E512C612C712CEC
:100AC000C701B601A30192010E945E0D672B682B3E
:100AD000692B51F4111644F469017A011150F0CFD9
:100AE000C12CD12C7601E7CFB501A401C1010E9430
:100AF0008002112371F14E01F1E18F0E911C012F43
:100B000054019AE0492E512C612C712C015068F04F
:100B1000C701B601A30192010E945E0D605DD40180
:100B20006E934D0169017A01F1CF812F90E0BC01F4
:100B300060957095F501E81BF90B31978EE2808383
:100B400044275527461B570B6A0D7B1DC1010E9488
:100B50006B02EF89F88DEF2B29F165E6C1010E9448
:100B600056020F89188D17FF07C06DE2C1010E9460
:100B70005602119501951109FE0177969F018AE0B1
:100B8000E82EF12CC801B7010E944A0D805D8293C6
:100B90008B01672BB9F7A9014E1B5F0BBF01C10188
:100BA0000E946B02D10112968D919C9130C06DE52F
:100BB000C1010E945602F6CF6BE7C1010E945602A6
:100BC000F8010081118101151105D1F0D8011696A7
:100BD0006D917C91C1010E94CC026AE3C1010E9427
:100BE0005602B101C8010E94AA03C8010E94F9027D
:100BF0008C01892B29F06CE2C1010E945602E3CFDF
:100C00006DE7C1010E945602F101828193816C96C9
:100C10000FB6F894DEBF0FBECDBFDF91CF911F910D
:100C20000F91FF90EF90DF90CF90BF90AF909F908B
:100C30008F907F906F905F904F903F902F9008958E
:100C40006D917C91C1010E94CC02DECFCD90DD90F0
:100C5000ED90FC90B701A601F7FE0BC06DE2C1015B
:100C60000E94560244275527BA014C195D096E09A6
:100C70007F09C1010E948002C7CF4D915D916D91A6
:100C80007C91F7CF8C9168E271E0811102C06DE236
:100C900071E0C1010E94A003B7CF1F920F920FB65F
:100CA0000F9211242F933F934F935F936F937F93F2
:100CB0008F939F93AF93BF93EF93FF9389E591E059
:100CC0000E948D01FF91EF91BF91AF919F918F9104
:100CD0007F916F915F914F913F912F910F900FBE38
:100CE0000F901F9018951F920F920FB60F9211241C
:100CF0002F938F939F93EF93FF93E0916901F0916E
:100D00006A018081E0916F01F091700182FD1BC04A
:100D10009081809172018F5F8F7320917301821790
:100D200041F0E0917201F0E0E75AFE4F958F809319
:100D30007201FF91EF919F918F912F910F900FBEB4
:100D40000F901F9018958081F4CF1F920F920FB6CD
:100D50000F9211242F933F938F939F93AF93BF9341
:100D60008091450190914601A0914701B0914801C1
:100D70003091440123E0230F2D3758F50196A11D32
:100D8000B11D209344018093450190934601A093A7
:100D90004701B09348018091490190914A01A09187
:100DA0004B01B0914C010196A11DB11D80934901E9
:100DB00090934A01A0934B01B0934C01BF91AF9126
:100DC0009F918F913F912F910F900FBE0F901F9089
:100DD000189526E8230F0296A11DB11DD2CFCF9200
:100DE000DF92EF92FF920F931F93E82FF92F05C028
:100DF000015011092109310961F19081962394175D
:100E0000B9F305C0015011092109310911F190818F
:100E100096239413F7CFC12CD12CE12CF12C0AC0CE
:100E20008FEFC81AD80AE80AF80A0C151D052E0516
:100E30003F0579F080818623841791F36C2D7D2DF9
:100E40008E2D9F2D1F910F91FF90EF90DF90CF90EF
:100E5000089560E070E080E090E01F910F91FF90B6
:100E6000EF90DF90CF900895E9E5F1E013821282D0
:100E700088EE93E0A0E0B0E084839583A683B783F7
:100E800084E091E09183808385EC90E0958784876E
:100E900084EC90E09787868780EC90E0918B808B44
:100EA00081EC90E0938B828B82EC90E0958B848B2D
:100EB00086EC90E0978B868B118E128E138E148E9B
:100EC000E6EFF1E084E092E0918380839383828374
:100ED0008CE192E095838483978386831086858551
:100EE000807885870895CF93DF9300D000D000D01D
:100EF000CDB7DEB7789484B5826084BD84B5816057
:100F000084BD85B5826085BD85B5816085BD8091D4
:100F10006E00816080936E0010928100809181004C
:100F20008260809381008091810081608093810044
:100F3000809180008160809380008091B100846006
:100F40008093B1008091B00081608093B000809167
:100F50007A00846080937A0080917A008260809326
:100F60007A0080917A00816080937A0080917A0083
:100F7000806880937A001092C100E0916901F0913D
:100F80006A0182E08083E0916501F0916601108240
:100F9000E0916701F091680180E180831092710116
:100FA000E0916D01F0916E0186E08083E0916B012C
:100FB000F0916C01808180618083E0916B01F09100
:100FC0006C01808188608083E0916B01F0916C01FD
:100FD000808180688083E0916B01F0916C01808159
:100FE0008F7D80838EE00E94E7008FE00E94E70003
:100FF00082E00E94E70009E511E090E0E92E90E030
:10100000F92E8EE00E941C02BC01990F880B990BEF
:101010000E94A30A2EE03BE340EA5BE30E94A80B98
:101020004B015C01AC019B0160E070E080EA90E460
:101030000E94870920E030E44CE156E40E94A80BAE
:10104000A50194010E94F9099B01AC0160E070E5E3
:1010500083EC97E40E94F9092EE336E245E95FE369
:101060000E94150C609355017093560180935701AF
:10107000909358018FE00E941C02BC01990F880BCD
:10108000990B0E94A30A9B01AC0160E070EC8FE712
:1010900094E40E94F90920E030E040E85FE30E9418
:1010A000870920E030E44CE156E40E94A80B0E943E
:1010B000600B4B015C0128E137ED4BEB50E30E94E4
:1010C000A80BA50194010E94A80BA50194010E9400
:1010D000A80B2B013C0127E13FE847E959E3C50193
:1010E000B4010E94A80B29E230E045E35AE30E94D4
:1010F00088099B01AC01C301B2010E9488099B01D0
:10110000AC0160E070E080E89FE30E94F90923E30E
:1011100033E948E853E40E948709609351017093D2
:101120005201809353019093540120E432E44FE044
:1011300050E061E082E00E9479034B0126E930E053
:1011400040E050E060E082E00E947903680D791D84
:10115000072E000C880B990B0E94A30A9B01AC017F
:1011600060E074E284E799E40E94F9094B015C01B4
:1011700080924D0190924E01A0924F01B092500189
:101180004090510150905201609053017090540171
:1011900020E030E0A901C301B2010E94530B20E01E
:1011A00030E040E05FE387FDA3C0C301B2010E94CD
:1011B00088090E946B0A2B013C0183E391E00E94A5
:1011C0000703FC01892B41F0948190789A60948305
:1011D0004082518262827382409055015090560144
:1011E000609057017090580120E030E0A901C301E0
:1011F000B2010E94530B20E030E040E05FE387FD46
:101200007CC0C301B2010E9488090E946B0A2B01B5
:101210003C0188E391E00E940703FC01892B41F027
:10122000948190789A609483408251826282738222
:1012300020E030E0A901C501B4010E94530B20E079
:1012400030E040E05FE387FD5DC0C501B4010E946E
:1012500088090E946B0A4B015C018EE391E00E94B9
:101260000703FC01892B41F0948190789A60948364
:1012700080829182A282B3821A8309831C821B829C
:10128000BE016F5F7F4F8FEF91E00E94AA030E9423
:1012900031022B013C018CE2882E99249394A12CDD
:1012A000B12C0E9431026419750986099709683EBC
:1012B000734081059105A8F321E0821A9108A108E5
:1012C000B10888EE480E83E0581E611C711C811421
:1012D0009104A104B10429F7E114F10409F491CEB9
:1012E0000E947901882309F48CCE0E94000089CEE7
:1012F000C301B2010E9487095CCFC301B2010E9401
:10130000870983CFC501B4010E948709A2CF505835
:10131000BB27AA270E949F090C94190B0E940B0B54
:1013200038F00E94120B20F039F49F3F19F426F494
:101330000C94080B0EF4E095E7FB0C94020BE92FDC
:101340000E942A0B58F3BA176207730784079507A0
:1013500020F079F4A6F50C944C0B0EF4E0950B2ECE
:10136000BA2FA02D0B01B90190010C01CA01A001F7
:101370001124FF27591B99F0593F50F4503E68F152
:101380001A16F040A22F232F342F4427585FF3CF93
:10139000469537952795A795F0405395C9F77EF464
:1013A0001F16BA0B620B730B840BBAF09150A1F0AD
:1013B000FF0FBB1F661F771F881FC2F70EC0BA0F33
:1013C000621F731F841F48F4879577956795B795BB
:1013D000F7959E3F08F0B0CF9395880F08F09927B6
:1013E000EE0F9795879508950E94DE0A08F481E034
:1013F00008950E940D0A0C94190B0E94120B58F0CC
:101400000E940B0B40F029F45F3F29F00C94020B73
:1014100051110C944D0B0C94080B0E942A0B68F38D
:101420009923B1F3552391F3951B550BBB27AA279D
:1014300062177307840738F09F5F5F4F220F331FD7
:10144000441FAA1FA9F335D00E2E3AF0E0E832D09F
:1014500091505040E695001CCAF72BD0FE2F29D0A2
:10146000660F771F881FBB1F261737074807AB0774
:10147000B0E809F0BB0B802DBF01FF2793585F4FE9
:101480003AF09E3F510578F00C94020B0C944D0BF2
:101490005F3FE4F3983ED4F3869577956795B795CB
:1014A000F7959F5FC9F7880F911D9695879597F9D6
:1014B0000895E1E0660F771F881FBB1F621773074F
:1014C0008407BA0720F0621B730B840BBA0BEE1F64
:1014D00088F7E09508950E94720A6894B1110C94FF
:1014E0004D0B08950E94320B88F09F5798F0B92F4A
:1014F0009927B751B0F0E1F0660F771F881F991F49
:101500001AF0BA95C9F714C0B13091F00E944C0B93
:10151000B1E008950C944C0B672F782F8827B85FA3
:1015200039F0B93FCCF3869577956795B395D9F7A0
:101530003EF490958095709561957F4F8F4F9F4FAA
:101540000895E89409C097FB3EF4909580957095B6
:1015500061957F4F8F4F9F4F9923A9F0F92F96E9FF
:10156000BB279395F695879577956795B795F11174
:10157000F8CFFAF4BB0F11F460FF1BC06F5F7F4F11
:101580008F4F9F4F16C0882311F096E911C0772323
:1015900021F09EE8872F762F05C0662371F096E82C
:1015A000862F70E060E02AF09A95660F771F881FFB
:1015B000DAF7880F9695879597F90895990F00089F
:1015C000550FAA0BE0E8FEEF16161706E807F90715
:1015D000C0F012161306E407F50798F0621B730BB0
:1015E000840B950B39F40A2661F0232B242B252B31
:1015F00021F408950A2609F4A140A6958FEF811DD4
:10160000811D089597F99F6780E870E060E0089574
:101610009FEF80EC089500240A941616170618060A
:101620000906089500240A941216130614060506E6
:101630000895092E0394000C11F4882352F0BB0F77
:1016400040F4BF2B11F460FF04C06F5F7F4F8F4FDA
:101650009F4F089557FD9058440F551F59F05F3F15
:1016600071F04795880F97FB991F61F09F3F79F0C4
:1016700087950895121613061406551FF2CF469546
:10168000F1DF08C0161617061806991FF1CF8695C8
:101690007105610508940895E894BB2766277727AC
:1016A000CB0197F908950E94DE0A08F48FEF0895A0
:1016B00016F00C949F0C0C94080B68940C94020B7D
:1016C0000E94320BA8F39923C1F3AEF3DF93CF93BB
:1016D0001F930F93FF92C92FDD2788232AF02197AC
:1016E000660F771F881FDAF720E030E040E85FEBF5
:1016F0009FE3883920F0803E38F021968F770E9452
:101700008809E8E6F0E004C00E948809E5E9F0E015
:101710000E94AD0C8B01BE01EC01FB2E6F577109CD
:101720007595771F880B990B0E94A30A28E132E771
:1017300041E35FE30E94BB0BAF2D9801AE01FF9028
:101740000F911F91CF91DF910E949F090C94190B6B
:101750000E94BB0B0C94190B0E940B0B38F00E94DB
:10176000120B20F0952311F00C94020B0C94080B33
:1017700011240C944D0B0E942A0B70F3959FC1F31A
:10178000950F50E0551F629FF001729FBB27F00D2F
:10179000B11D639FAA27F00DB11DAA1F649F662784
:1017A000B00DA11D661F829F2227B00DA11D621FD3
:1017B000739FB00DA11D621F839FA00D611D221F8D
:1017C000749F3327A00D611D231F849F600D211D71
:1017D000822F762F6A2F11249F5750409AF0F1F0F4
:1017E00088234AF0EE0FFF1FBB1F661F771F881F5D
:1017F00091505040A9F79E3F510580F00C94020B88
:101800000C944D0B5F3FE4F3983ED4F386957795A7
:101810006795B795F795E7959F5FC1F7FE2B880F02
:10182000911D9695879597F90895FA01EE0FFF1F80
:10183000309621053105A1F16115710561F48038FB
:10184000BFE39B0749F168949038810561F08038C7
:10185000BFEF9B0741F099234AF5FF3FE1053105B2
:10186000210519F1E8940894E795D901AA2329F4F0
:10187000AB2FBE2FF85FD0F310C0FF5F70F4A695BA
:10188000E0F7F73950F019F0FF3A38F49F779F935B
:101890000DD00F9007FC9058089546F00C94080B5B
:1018A00060E070E080E89FE308954FE79F775F93E3
:1018B0004F933F932F930E94600B2F913F914F9135
:1018C0005F910E94A80B0C946D0C29F416F00C94F7
:1018D000020B0C944C0B0C94080B0E94320BA8F3D7
:1018E0009638A0F707F80F92E8942BE33AEA48EB12
:1018F0005FE70E94BE0B0F920F920F924DB75EB73B
:101900000F920E94160DE2ECF0E00E94AD0C4F9198
:101910005F91EF91FF91E595EE1FFF1F49F0FE5794
:10192000E0684427EE0F441FFA95E1F74195550B07
:101930000E94E00C0F9007FE0C94D40C08959F3F7A
:1019400031F0915020F4879577956795B795880F7A
:10195000911D9695879597F90895DF93CF931F93DF
:101960000F93FF92EF92DF927B018C01689406C087
:10197000DA2EEF010E94BB0BFE01E894A5912591A0
:10198000359145915591A6F3EF010E949F09FE0103
:101990009701A801DA9469F7DF90EF90FF900F911B
:1019A0001F91CF91DF9108959B01AC0160E070E041
:1019B00080E89FE30C94F9090C94020B0C949F0CA3
:1019C0000E94320BD8F39923C9F3940F511DA3F34E
:1019D0009150504094F059F0882332F0660F771FF1
:1019E000881F91505040C1F79E3F51052CF7880F3A
:1019F000911D9695879597F908955F3FACF0983EB5
:101A00009CF0BB27869577956795B79508F4B160EC
:101A10009395C1F7BB0F58F711F460FFE8CF6F5FE4
:101A20007F4F8F4F9F4FE3CF0C944D0BFA01DC019A
:101A3000AA0FBB1F9B01AC01BF5728F422273327F5
:101A40004427507820C0B75190F4AB2F002446951E
:101A500037952795011CA395D2F3002071F0220F32
:101A6000331F441FB395DAF30ED00C94870961300D
:101A70007105A0E88A07B94630F49B01AC016627DE
:101A8000772788279078309621F02083318342830E
:101A900053830895AA1BBB1B51E107C0AA1FBB1F9C
:101AA000A617B70710F0A61BB70B881F991F5A95EA
:101AB000A9F780959095BC01CD010895A1E21A2E59
:101AC000AA1BBB1BFD010DC0AA1FBB1FEE1FFF1FE2
:101AD000A217B307E407F50720F0A21BB30BE40B32
:101AE000F50B661F771F881F991F1A9469F7609579
:101AF0007095809590959B01AC01BD01CF01089533
:101B0000EE0FFF1F0590F491E02D0994FB01DC011D
:101B10008D91019080190110D9F3990B0895F894D3
:021B2000FFCFF5
:101B220000000000AF010F013C01FC016D014B01FF
:101B32005F012F2F22225C5C6208660C6E0A720D16
:101B42007409006E756C6C00747275650066616C68
:101B520073650074656D70006C6967687400766502
:041B62006E746F002E
:00000001FF
