:100000000C94BD000C94E5000C94E5000C94E50004
:100010000C94E5000C94E5000C94E5000C94E500CC
:100020000C94E5000C94E5000C94E5000C94E500BC
:100030000C94E5000C94E5000C94E5000C94E500AC
:100040000C947E060C94E5000C94EE060C94C80605
:100050000C94E5000C94E5000C94E5000C94E5008C
:100060000C94E5000C94E50008000000BE922449C1
:10007000123EABAAAA2ABECDCCCC4C3E00000080DA
:10008000BEABAAAAAA3E00000000BF000000803F4D
:100090000000000000084178D3BB4387D1133D190D
:1000A0000E3CC3BD4282AD2B3E68EC8276BED98F3A
:1000B000E1A93E4C80EFFFBE01C4FF7F3F0000007E
:1000C000000007634236B79BD8A71A39685618AEA6
:1000D000BAAB558C1D3CB7CC5763BD6DEDFD753E7D
:1000E000F6177231BF000000803FCDCCCC3D0AD75F
:1000F000233C17B7D13877CC2B329595E6241FB126
:100100004F0A0000803FCDCCCC3D6F12833A95BFA3
:10011000D6337D1D9026B3CE010C00002041000097
:10012000C84200401C4620BCBE4CCA1B0E5AAEC57D
:100130009D7400000000230026002900000000003C
:10014000250028002B0000000000240027002A00C2
:10015000040404040404040402020202020203036D
:100160000303030301020408102040800102040875
:1001700010200102040810206A0A11241FBECFEFCC
:10018000D8E0DEBFCDBF11E0A0E0B1E0ECE4FDE1DE
:1001900002C005900D92AE36B107D9F722E0AEE667
:1001A000B1E001C01D92A032B207E1F710E0CDEB43
:1001B000D0E004C02197FE010E94950ECC3BD107F0
:1001C000C9F70E9465070C94A40E0C940000CF930D
:1001D000DF9390E0FC01EC59FE4F2491805B9E4F31
:1001E000FC0184918823C1F090E0880F991FFC01E5
:1001F000EA5BFE4FC591D491FC01E45CFE4FA591F2
:10020000B4919FB7F8948881E22FE0958E2388837C
:100210008C91E823EC939FBFDF91CF910895AF922B
:10022000BF92CF92DF92EF92FF920F931F93CF93E3
:10023000DF936C017B018B01040F151FEB015E0145
:10024000AE18BF08C017D10759F06991D601ED91DA
:10025000FC910190F081E02DC6010995892B79F779
:10026000C501DF91CF911F910F91FF90EF90DF902B
:10027000CF90BF90AF900895FC01538D448D252FF2
:1002800030E0842F90E0821B930B541710F0CF9630
:10029000089501970895FC01918D828D981761F062
:1002A000A28DAE0FBF2FB11D5D968C91928D9F5F79
:1002B0009F73928F90E008958FEF9FEF0895FC0158
:1002C000918D828D981731F0828DE80FF11D858D0B
:1002D00090E008958FEF9FEF0895FC01918D228D9E
:1002E000892F90E0805C9F4F821B91098F73992723
:1002F000089583E891E00E946D0121E0892B09F4C3
:1003000020E0822F089580E090E0892B29F00E9460
:10031000790181110C9400000895FC01A48DA80FAF
:10032000B92FB11DA35ABF4F2C91848D90E0019637
:100330008F739927848FA689B7892C93A089B18957
:100340008C91837080648C93938D848D981306C0F8
:100350000288F389E02D80818F7D80830895EF925C
:10036000FF920F931F93CF93DF93EC0181E0888F6F
:100370009B8D8C8D98131AC0E889F989808185FF3F
:1003800015C09FB7F894EE89FF896083E889F989E1
:1003900080818370806480839FBF81E090E0DF91E3
:1003A000CF911F910F91FF90EF900895F62E0B8D36
:1003B00010E00F5F1F4F0F731127E02E8C8D8E11F1
:1003C0000CC00FB607FCFACFE889F989808185FF58
:1003D000F5CFCE010E948D01F1CFEB8DEC0FFD2FFB
:1003E000F11DE35AFF4FF0829FB7F8940B8FEA8913
:1003F000FB8980818062CFCFCF93DF93EC01888D22
:100400008823B9F0AA89BB89E889F9898C9185FD8F
:1004100003C0808186FD0DC00FB607FCF7CF8C911D
:1004200085FFF2CF808185FFEDCFCE010E948D0147
:10043000E9CFDF91CF9108958E3008F08E5087700C
:10044000806480937C0080917A00806480937A003D
:1004500080917A0086FDFCCF8091780090917900A0
:100460000895CF93DF93EC0188819981DC01ED91B0
:10047000FC910190F081E02D09952A813B81820F4A
:10048000931F9B838A83DF91CF910895CF93DF934E
:10049000EC0188819981DC01ED91FC910280F3816E
:1004A000E02D09952A813B81820F931F9B838A83CC
:1004B000DF91CF9108958F929F92AF92BF92CF928A
:1004C000DF92EF92FF920F931F93CF93DF93CDB7FD
:1004D000DEB766970FB6F894DEBF0FBECDBF6C01D6
:1004E0008E01095E1F4F78018AE0882E912CA12C85
:1004F000B12CCB01BA01A50194010E94730E942F77
:10050000852F605DF80162938F01A901692F782F13
:10051000411551056105710561F7A7014E1B5F0B80
:10052000BF01C6010E94460266960FB6F894DEBF70
:100530000FBECDBFDF91CF911F910F91FF90EF9034
:10054000DF90CF90BF90AF909F908F900895EF92E3
:10055000FF920F931F93CF93DF93EC017B0162E235
:100560000E9431028701F80161918F01662391F0A9
:10057000E2E1F1E0F280FF2049F0329681816813D8
:10058000F9CF6CE5CE010E9431026F2DCE010E94A1
:100590003102E9CF62E2CE01DF91CF911F910F913D
:1005A000FF90EF900C943102FC012581222339F059
:1005B000F8E02F0290011124820F931F089590E01C
:1005C00080E008950F931F93462F90E0FC01EC59B3
:1005D000FE4F6491FC01E05BFE4FE4914111462F18
:1005E000F0E0EE0FFF1FEE5CFE4F8591949100E46A
:1005F00012E42FE030E00E942007611571058105AB
:10060000910529F06F5F7F4F8F4F9F4F9F701F9114
:100610000F910895FC0101900020E9F73197AF0197
:10062000481B590BBC0183E891E00C940F018F9299
:100630009F92AF92BF920F931F93CF93DF93CDB74B
:10064000DEB7A1970FB6F894DEBF0FBECDBF19A2DB
:10065000423008F44AE08E010F5D1F4F842E912C2A
:10066000B12CA12CA50194010E94730EE62FB901B3
:10067000CA01EA30F4F4E05DD801EE938D01232B3A
:10068000242B252B79F790E080E0109719F0CD010D
:100690000E940A03A1960FB6F894DEBF0FBECDBF2D
:1006A000DF91CF911F910F91BF90AF909F908F904E
:1006B0000895E95CE1CFFB0101900020E9F7319753
:1006C000AF01461B570B0C9446022F923F924F925C
:1006D0005F926F927F928F929F92AF92BF92CF92D2
:1006E000DF92EF92FF920F931F93CF93DF93CDB7DB
:1006F000DEB76C970FB6F894DEBF0FBECDBF8C018E
:100700001B01DC0114968C9114978F77863009F4C5
:1007100074C278F48230B0F0843008F04CC2129683
:100720004D915C9113976D917C91C1010E9446029D
:1007300026C28C3069F160F4883009F459C28A30DD
:1007400009F43FC263E271E0C1010E945B03E5C1AD
:10075000803209F4ECC18034A9F76BE5C1010E9435
:100760003102F801008111810115110509F4DAC186
:10077000B101C8010E946503C8010E94D4028C0126
:10078000892B09F4CFC16CE2C1010E943102ECCF88
:10079000F801C080D180E280F380A7019601C701F3
:1007A000B6010E94040B8111CDCF20E030E0A901F9
:1007B000C701B6010E94040B882379F0A7019601B6
:1007C000C701B6010E94980A9B01AC01C701B6019E
:1007D0000E94040B882309F4B5CF20E030E0A90182
:1007E000C701B6010E94040B87FF08C06DE2C1017A
:1007F0000E943102F7FAF094F7F8F09420E836E915
:1008000048E15BE4C701B6010E94630C87FD81C02B
:1008100074E1A72EB12C00E210E0188E1F8AF501BA
:10082000E65EFE4F2591359145915491C701B60181
:100830000E94630C87FD13C0F501E651FF4F25911F
:10084000359145915491C701B6010E94B80C6B01D6
:100850007C012F89388D200F311F388F2F8B1595F4
:10086000079534E0A31AB1088CEFA8168FEFB806ED
:10087000B1F655245A9420E030E0A901C701B60131
:100880000E94630C18160CF04BC02CEA35EC47E2C2
:1008900057E3C701B6010E94040B18160CF440C0C0
:1008A000A52DB4E0AB02C0011124912C812CFC01D8
:1008B000EE5FFE4F3F019C01265E3E4F59013FEF28
:1008C000531671F1F301E80DF91D6591759185914C
:1008D0009491A70196010E94630C18169CF4F501EF
:1008E000E80DF91D2591359145915491C701B60147
:1008F0000E94B80C6B017C018F89988D801B910B35
:10090000988F8F8B159507955A9494E0891A9108C2
:10091000D6CF00E210E055E0552E188E1F8AABCFDF
:10092000C701B6010E94820B4B015C012B013C0107
:1009300006E080E492E4AFE0B0E0898F9A8FAB8F5D
:10094000BC8F102F01509AE04916510461047104C4
:10095000C8F0698D7A8D8B8D9C8D2AE030E040E067
:1009600050E00E94730E298F3A8F4B8F5C8FC3012A
:10097000B2012AE030E040E050E00E94730E29010D
:100980003A01DFCFC501B4010E94B10B9B01AC015C
:10099000C701B6010E94970A6B017C01698D7A8DAF
:1009A0008B8D9C8D0E94B10B9B01AC01C701B601E0
:1009B0000E94B80C2B013C010E94820B6B017C0150
:1009C0000E94B10B9B01AC01C301B2010E94970AC6
:1009D0009B01AC010E94980A0E94820BC60ED71E92
:1009E000E81EF91E898D9A8DAB8DBC8DC816D9066F
:1009F000EA06FB06D8F09FEF891A990AA90AB90AF4
:100A0000AF89B88DAB2B39F1BAE08B169104A104F4
:100A1000B10408F1EF89F88D3196F88FEF8BC12C76
:100A2000D12C7601812C912C540183942AE0422E02
:100A3000512C612C712CC701B601A30192010E94B7
:100A4000730E672B682B692B51F4111644F469015E
:100A50007A011150F0CFC12CD12C7601E7CFB5012E
:100A6000A401C1010E945B02112371F14E01F1E169
:100A70008F0E911C012F54019AE0492E512C612CAC
:100A8000712C015068F0C701B601A30192010E94C8
:100A9000730E605DD4016E934D0169017A01F1CF4F
:100AA000812F90E0BC0160957095F501E81BF90B72
:100AB00031978EE2808344275527461B570B6A0DDA
:100AC0007B1DC1010E944602EF89F88DEF2B29F1B1
:100AD00065E6C1010E9431020F89188D17FF07C01A
:100AE0006DE2C1010E943102119501951109FE01CB
:100AF00077969F018AE0E82EF12CC801B7010E9489
:100B00005F0E805D82938B01672BB9F7A9014E1BA5
:100B10005F0BBF01C1010E944602D10112968D9167
:100B20009C9130C06DE5C1010E943102F6CF6BE7A8
:100B3000C1010E943102F8010081118101151105E6
:100B4000D1F0D80116966D917C91C1010E94A70247
:100B50006AE3C1010E943102B101C8010E9465032C
:100B6000C8010E94D4028C01892B29F06CE2C101DA
:100B70000E943102E3CF6DE7C1010E943102F10111
:100B8000828193816C960FB6F894DEBF0FBECDBF05
:100B9000DF91CF911F910F91FF90EF90DF90CF9059
:100BA000BF90AF909F908F907F906F905F904F908D
:100BB0003F902F9008956D917C91C1010E94A702F2
:100BC000DECFCD90DD90ED90FC90B701A601F7FE51
:100BD0000BC06DE2C1010E94310244275527BA01C2
:100BE0004C195D096E097F09C1010E945B02C7CFE4
:100BF0004D915D916D917C91F7CF8C9168E271E0A0
:100C0000811102C06DE271E0C1010E945B03B7CFA8
:100C1000CF92DF92EF92FF920F931F93CF93DF93C8
:100C2000FC018481982F9F7739F4807880628483D7
:100C30001182108213821282848185FD0CC0D0E063
:100C4000C0E0CE01DF91CF911F910F91FF90EF9007
:100C5000DF90CF9008956115710589F37A016B01DA
:100C60008F01C081D1812097C1F16E817F816C1588
:100C70007D0539F36115710529F0C6010E949B0EAF
:100C8000892BF9F2CE010E94D402EC01ECCFE901EC
:100C90002897F701D583C483209789F2D80112964B
:100CA000ED91FC911397309791F0CE018E1B9F0B25
:100CB00023E0959587952A95E1F785831396DC9334
:100CC000CE9312971D821C82DF82CE82BACFF801AA
:100CD000D183C083D383C283F5CFD70114962D91DE
:100CE0003C91159712968D919C910896281739077B
:100CF00070F681E0D70118968C93A3CF1F920F92C4
:100D00000FB60F9211242F933F938F939F93AF931E
:100D1000BF9380917F0190918001A0918101B0915A
:100D2000820130917E0123E0230F2D3758F5019683
:100D3000A11DB11D20937E0180937F0190938001BE
:100D4000A0938101B093820180917A0190917B01FF
:100D5000A0917C01B0917D010196A11DB11D8093F0
:100D60007A0190937B01A0937C01B0937D01BF91A8
:100D7000AF919F918F913F912F910F900FBE0F9048
:100D80001F90189526E8230F0296A11DB11DD2CF02
:100D90001F920F920FB60F9211242F933F934F93F0
:100DA0005F936F937F938F939F93AF93BF93EF93D3
:100DB000FF9383E891E00E948D01FF91EF91BF9135
:100DC000AF919F918F917F916F915F914F913F91E3
:100DD0002F910F900FBE0F901F9018951F920F929A
:100DE0000FB60F9211242F938F939F93EF93FF933E
:100DF000E0919301F09194018081E0919901F0914B
:100E00009A0182FD1BC0908180919C018F5F8F733E
:100E100020919D01821741F0E0919C01F0E0ED5797
:100E2000FE4F958F80939C01FF91EF919F918F9141
:100E30002F910F900FBE0F901F9018958081F4CFC7
:100E4000CF92DF92EF92FF920F931F93E82FF92F2B
:100E500005C0015011092109310961F190819623E2
:100E60009417B9F305C0015011092109310911F195
:100E7000908196239413F7CFC12CD12CE12CF12C27
:100E80000AC08FEFC81AD80AE80AF80A0C151D051F
:100E90002E053F0579F080818623841791F36C2D10
:100EA0007D2D8E2D9F2D1F910F91FF90EF90DF9044
:100EB000CF90089560E070E080E090E01F910F9186
:100EC000FF90EF90DF90CF900895CF93DF93CDB751
:100ED000DEB7CC5DD1090FB6F894DEBF0FBECDBF33
:100EE000789484B5826084BD84B5816084BD85B505
:100EF000826085BD85B5816085BD80916E00816011
:100F000080936E00109281008091810082608093B6
:100F100081008091810081608093810080918000B8
:100F20008160809380008091B10084608093B100E3
:100F30008091B00081608093B00080917A008460DD
:100F400080937A0080917A00826080937A00809109
:100F50007A00816080937A0080917A008068809323
:100F60007A001092C100E0919301F091940182E027
:100F70008083E0918F01F09190011082E0919101C6
:100F8000F091920180E1808310929B01E0919701A2
:100F9000F091980186E08083E0919501F0919601AF
:100FA000808180618083E0919501F091960180813C
:100FB00088608083E0919501F0919601808180683E
:100FC0008083E0919501F091960180818F7D8083EF
:100FD0008EE00E94E7008FE00E94E70082E00E941E
:100FE000E7005E018FE0A80EB11C8E0109521F4F71
:100FF00080E0882E80E0982EBA82A982BC82AB82E3
:101000001E830D8318870F8319868E8580788E87BF
:101010008EE00E941C02BC01990F880B990B0E9464
:10102000B30B2EE03BE340EA5BE30E94B80C6B019C
:101030007C01AC019B0160E070E080EA90E40E94DA
:10104000970A20E030E44CE156E40E94B80CA70176
:1010500096010E94090B9B01AC0160E070E583ECF6
:1010600097E40E94090B2EE336E245E95FE30E9414
:10107000250D6093760170937701809378019093AA
:1010800079018FE00E941C02BC01990F880B990B1B
:101090000E94B30B9B01AC0160E070EC8FE794E41D
:1010A0000E94090B20E030E040E85FE30E94970ACD
:1010B00020E030E44CE156E40E94B80C0E94700C31
:1010C0006B017C0128E137ED4BEB50E30E94B80C3B
:1010D000A70196010E94B80CA70196010E94B80CC6
:1010E0002B013C0127E13FE847E959E3C701B6017D
:1010F0000E94B80C29E230E045E35AE30E94980AC6
:101100009B01AC01C301B2010E94980A9B01AC0192
:1011100060E070E080E89FE30E94090B23E333E97D
:1011200048E853E40E94970A609372017093730138
:10113000809374019093750161E082E00E94E20265
:101140006B0160E082E00E94E2026C0D7D1D072EC3
:10115000000C880B990B0E94B30B9B01AC0160E063
:1011600074E284E799E40E94090B60936E01709326
:101170006F018093700190937101C0907601D090BF
:101180007701E0907801F090790183E391E00E948B
:101190000A03A7019601C701B6010E94750D8823B5
:1011A00009F4F2C08CE391E00E940A0388E491E024
:1011B0000E940A038DE491E00E940A03C0906E0130
:1011C000D0906F01E0907001F090710180E591E0A6
:1011D0000E940A0320E030E0A901C701B6010E9485
:1011E000630C20E030E040E05FE387FD5FC1C701B2
:1011F000B6010E94980A0E947B0B6B017C014AE0B9
:10120000F7FE0DC06DE283E891E00E94AF01662712
:101210007727CB016C197D098E099F094AE00E944E
:10122000170388E591E00E940A038DE491E00E9493
:101230000A03C0907201D0907301E0907401F090A5
:10124000750120E030E0A901C701B6010E94630CDE
:1012500020E030E040E05FE387FD2DC1C701B6012B
:101260000E94980A0E947B0B6B017C01AE014F5FCC
:101270005F4F6CE571E0CE010A960E940806FC0102
:10128000892B41F0948190789A609483C082D182B6
:10129000E282F382C0907601D0907701E0907801ED
:1012A000F090790120E030E0A901C701B6010E9469
:1012B000630C20E030E040E05FE387FD01C1C7013F
:1012C000B6010E94980A0E947B0B6B017C01AE0163
:1012D0004F5F5F4F61E671E0CE010A960E940806FB
:1012E000FC01892B41F0948190789A609483C082AC
:1012F000D182E282F382C0906E01D0906F01E090C3
:101300007001F090710120E030E0A901C701B60141
:101310000E94630C20E030E040E05FE387FDD5C031
:10132000C701B6010E94980A0E947B0B6B017C01E9
:10133000AE014F5F5F4F67E671E0CE010A960E94F3
:101340000806FC01892B41F0948190789A6094837F
:10135000C082D182E282F38283E891E0F801918336
:10136000808313821282B801CE010A960E9465031F
:101370008114910409F440CE0E947901882309F474
:101380003BCE0E94000038CE26013701E89477F862
:101390002FEF3FEF4FE75FE7C301B2010E94750DEA
:1013A00081110DC02FEF3FEF4FE75FE7C301B2019F
:1013B0000E94040B18161CF480E491E0F5CE2FEF88
:1013C0003FEF4FE75FE4C701B6010E94630C1816B8
:1013D0001CF484E491E0E8CE2FEF3FEF4FE75FECA1
:1013E000C701B6010E94040B87FDF3CF20E030E077
:1013F000A901C701B6010E94040B87FF09C06DE275
:1014000083E891E00E94AF01F7FAF094F7F8F094C6
:101410002AE037ED43EA5BE3C701B6010E94980A70
:101420002B013C010E94820B6B017C010E94B10BDD
:101430009B01AC01C301B2010E94970A2B013C0140
:101440004AE0C701B6010E9417036EE283E891E00B
:101450000E94AF0120E030E040E251E4C301B2015C
:101460000E94B80C2B013C010E94820B6B01F12CF5
:10147000E12C4AE0C701B6010E941703C701B6017B
:101480000E94B10B9B01AC01C301B2010E94970AFB
:1014900020E030E040E251E40E94B80C0E94820B50
:1014A00090E080E04AE00E94170380CEC701B601B9
:1014B0000E94970AA0CEC701B6010E94970AD2CE19
:1014C000C701B6010E94970AFECEC701B6010E946D
:1014D000970A2ACFE3E8F1E01382128288EE93E0C4
:1014E000A0E0B0E084839583A683B78384E091E095
:1014F0009183808385EC90E09587848784EC90E0ED
:101500009787868780EC90E0918B808B81EC90E0D0
:10151000938B828B82EC90E0958B848B86EC90E0B1
:10152000978B868B118E128E138E148E08955058C1
:10153000BB27AA270E94AF0A0C94290C0E941B0CFF
:1015400038F00E94220C20F039F49F3F19F426F461
:101550000C94180C0EF4E095E7FB0C94120CE92F98
:101560000E943A0C58F3BA1762077307840795076D
:1015700020F079F4A6F50C945C0C0EF4E0950B2E9B
:10158000BA2FA02D0B01B90190010C01CA01A001D5
:101590001124FF27591B99F0593F50F4503E68F130
:1015A0001A16F040A22F232F342F4427585FF3CF71
:1015B000469537952795A795F0405395C9F77EF442
:1015C0001F16BA0B620B730B840BBAF09150A1F08B
:1015D000FF0FBB1F661F771F881FC2F70EC0BA0F11
:1015E000621F731F841F48F4879577956795B79599
:1015F000F7959E3F08F0B0CF9395880F08F0992794
:10160000EE0F9795879508950E94EE0B08F481E000
:1016100008950E941D0B0C94290C0E94220C58F076
:101620000E941B0C40F029F45F3F29F00C94120C2F
:1016300051110C945D0C0C94180C0E943A0C68F338
:101640009923B1F3552391F3951B550BBB27AA277B
:1016500062177307840738F09F5F5F4F220F331FB5
:10166000441FAA1FA9F335D00E2E3AF0E0E832D07D
:1016700091505040E695001CCAF72BD0FE2F29D080
:10168000660F771F881FBB1F261737074807AB0752
:10169000B0E809F0BB0B802DBF01FF2793585F4FC7
:1016A0003AF09E3F510578F00C94120C0C945D0CAE
:1016B0005F3FE4F3983ED4F3869577956795B795A9
:1016C000F7959F5FC9F7880F911D9695879597F9B4
:1016D0000895E1E0660F771F881FBB1F621773072D
:1016E0008407BA0720F0621B730B840BBA0BEE1F42
:1016F00088F7E09508950E94820B6894B1110C94CC
:101700005D0C08950E94420C88F09F5798F0B92F05
:101710009927B751B0F0E1F0660F771F881F991F26
:101720001AF0BA95C9F714C0B13091F00E945C0C60
:10173000B1E008950C945C0C672F782F8827B85F70
:1017400039F0B93FCCF3869577956795B395D9F77E
:101750003EF490958095709561957F4F8F4F9F4F88
:101760000895E89409C097FB3EF490958095709594
:1017700061957F4F8F4F9F4F9923A9F0F92F96E9DD
:10178000BB279395F695879577956795B795F11152
:10179000F8CFFAF4BB0F11F460FF1BC06F5F7F4FEF
:1017A0008F4F9F4F16C0882311F096E911C0772301
:1017B00021F09EE8872F762F05C0662371F096E80A
:1017C000862F70E060E02AF09A95660F771F881FD9
:1017D000DAF7880F9695879597F90895990F00087D
:1017E000550FAA0BE0E8FEEF16161706E807F907F3
:1017F000C0F012161306E407F50798F0621B730B8E
:10180000840B950B39F40A2661F0232B242B252B0E
:1018100021F408950A2609F4A140A6958FEF811DB1
:10182000811D089597F99F6780E870E060E0089552
:101830009FEF80EC089500240A94161617061806E8
:101840000906089500240A941216130614060506C4
:101850000895092E0394000C11F4882352F0BB0F55
:1018600040F4BF2B11F460FF04C06F5F7F4F8F4FB8
:101870009F4F089557FD9058440F551F59F05F3FF3
:1018800071F04795880F97FB991F61F09F3F79F0A2
:1018900087950895121613061406551FF2CF469524
:1018A000F1DF08C0161617061806991FF1CF8695A6
:1018B0007105610508940895E894BB27662777278A
:1018C000CB0197F908950E94EE0B08F48FEF08956D
:1018D00016F00C94B40D0C94180C68940C94120C23
:1018E0000E94420CA8F39923C1F3AEF3DF93CF9388
:1018F0001F930F93FF92C92FDD2788232AF021978A
:10190000660F771F881FDAF720E030E040E85FEBD2
:101910009FE3883920F0803E38F021968F770E942F
:10192000980AE8E6F0E004C00E94980AE5E9F0E0D1
:101930000E94C20D8B01BE01EC01FB2E6F57710995
:101940007595771F880B990B0E94B30B28E132E73E
:1019500041E35FE30E94CB0CAF2D9801AE01FF90F5
:101960000F911F91CF91DF910E94AF0A0C94290C27
:101970000E94CB0C0C94290C0E941B0C38F00E9486
:10198000220C20F0952311F00C94120C0C94180CDE
:1019900011240C945D0C0E943A0C70F3959FC1F3D6
:1019A000950F50E0551F629FF001729FBB27F00D0D
:1019B000B11D639FAA27F00DB11DAA1F649F662762
:1019C000B00DA11D661F829F2227B00DA11D621FB1
:1019D000739FB00DA11D621F839FA00D611D221F6B
:1019E000749F3327A00D611D231F849F600D211D4F
:1019F000822F762F6A2F11249F5750409AF0F1F0D2
:101A000088234AF0EE0FFF1FBB1F661F771F881F3A
:101A100091505040A9F79E3F510580F00C94120C54
:101A20000C945D0C5F3FE4F3983ED4F38695779574
:101A30006795B795F795E7959F5FC1F7FE2B880FE0
:101A4000911D9695879597F90895FA01EE0FFF1F5E
:101A5000309621053105A1F16115710561F48038D9
:101A6000BFE39B0749F168949038810561F08038A5
:101A7000BFEF9B0741F099234AF5FF3FE105310590
:101A8000210519F1E8940894E795D901AA2329F4CE
:101A9000AB2FBE2FF85FD0F310C0FF5F70F4A69598
:101AA000E0F7F73950F019F0FF3A38F49F779F9339
:101AB0000DD00F9007FC9058089546F00C94180C28
:101AC00060E070E080E89FE308954FE79F775F93C1
:101AD0004F933F932F930E94700C2F913F914F9102
:101AE0005F910E94B80C0C94820D0E94EE0B880B43
:101AF000990B089529F416F00C94120C0C945C0CBC
:101B00000C94180C0E94420CA8F39638A0F707F822
:101B10000F92E8942BE33AEA48EB5FE70E94CE0C81
:101B20000F920F920F924DB75EB70F920E942B0E3D
:101B3000E2ECF0E00E94C20D4F915F91EF91FF91B6
:101B4000E595EE1FFF1F49F0FE57E0684427EE0FB2
:101B5000441FFA95E1F74195550B0E94F50D0F9042
:101B600007FE0C94E90D08959F3F31F0915020F449
:101B7000879577956795B795880F911D9695879569
:101B800097F90895DF93CF931F930F93FF92EF92EE
:101B9000DF927B018C01689406C0DA2EEF010E946F
:101BA000CB0CFE01E894A591259135914591559175
:101BB000A6F3EF010E94AF0AFE019701A801DA9493
:101BC00069F7DF90EF90FF900F911F91CF91DF9118
:101BD00008959B01AC0160E070E080E89FE30C9405
:101BE000090B0C94120C0C94B40D0E94420CD8F307
:101BF0009923C9F3940F511DA3F39150504094F0D1
:101C000059F0882332F0660F771F881F915050409B
:101C1000C1F79E3F51052CF7880F911D969587952A
:101C200097F908955F3FACF0983E9CF0BB278695EE
:101C300077956795B79508F4B1609395C1F7BB0F99
:101C400058F711F460FFE8CF6F5F7F4F8F4F9F4FC2
:101C5000E3CF0C945D0CFA01DC01AA0FBB1F9B01C2
:101C6000AC01BF5728F4222733274427507820C0DF
:101C7000B75190F4AB2F0024469537952795011C5A
:101C8000A395D2F3002071F0220F331F441FB395A8
:101C9000DAF30ED00C94970A61307105A0E88A0738
:101CA000B94630F49B01AC016627772788279078E6
:101CB000309621F020833183428353830895AA1BF9
:101CC000BB1B51E107C0AA1FBB1FA617B70710F027
:101CD000A61BB70B881F991F5A95A9F78095909559
:101CE000BC01CD010895A1E21A2EAA1BBB1BFD0168
:101CF0000DC0AA1FBB1FEE1FFF1FA217B307E407EB
:101D0000F50720F0A21BB30BE40BF50B661F771F42
:101D1000881F991F1A9469F7609570958095909522
:101D20009B01AC01BD01CF010895EE0FFF1F05908F
:101D3000F491E02D0994FB01DC018D910190801953
:0C1D40000110D9F3990B0895F894FFCF1F
:101D4C0000000000AF010F013C01FC016D014B01D3
:101D5C005F012F2F22225C5C6208660C6E0A720DEA
:101D6C007409006E756C6C00747275650066616C3C
:101D7C007365004C756D696E2E3A20006E616E00B5
:101D8C00696E66006F766600206C7578000D0A002F
:101D9C00467265712E3A200020487A0074656D7089
:0E1DAC00006C696768740076656E746F0000E5
:00000001FF
