:100000000C94BD000C94E5000C94E5000C94E50004
:100010000C94E5000C94E5000C94E5000C94E500CC
:100020000C94E5000C94E5000C94E5000C94E500BC
:100030000C94E5000C94E5000C94E5000C94E500AC
:100040000C942D060C94E5000C949D060C947706F8
:100050000C94E5000C94E5000C94E5000C94E5008C
:100060000C94E5000C94E50008000000BE922449C1
:10007000123EABAAAA2ABECDCCCC4C3E00000080DA
:10008000BEABAAAAAA3E00000000BF000000803F4D
:100090000000000000084178D3BB4387D1133D190D
:1000A0000E3CC3BD4282AD2B3E68EC8276BED98F3A
:1000B000E1A93E4C80EFFFBE01C4FF7F3F0000007E
:1000C000000007634236B79BD8A71A39685618AEA6
:1000D000BAAB558C1D3CB7CC5763BD6DEDFD753E7D
:1000E000F6177231BF000000803FCDCCCC3D0AD75F
:1000F000233C17B7D13877CC2B329595E6241FB126
:100100004F0A0000803FCDCCCC3D6F12833A95BFA3
:10011000D6337D1D9026B3CE010C00002041000097
:10012000C84200401C4620BCBE4CCA1B0E5AAEC57D
:100130009D7400000000230026002900000000003C
:10014000250028002B0000000000240027002A00C2
:10015000040404040404040402020202020203036D
:100160000303030301020408102040800102040875
:100170001020010204081020220911241FBECFEF15
:10018000D8E0DEBFCDBF11E0A0E0B1E0E2EBFAE1E4
:1001900002C005900D92A434B107D9F721E0A4E480
:1001A000B1E001C01D92A63FB207E1F710E0CDEB30
:1001B000D0E004C02197FE010E94480DCC3BD1073E
:1001C000C9F70E9414070C94570D0C940000CF93AC
:1001D000DF9390E0FC01EC59FE4F2491805B9E4F31
:1001E000FC0184918823C1F090E0880F991FFC01E5
:1001F000EA5BFE4FC591D491FC01E45CFE4FA591F2
:10020000B4919FB7F8948881E22FE0958E2388837C
:100210008C91E823EC939FBFDF91CF910895AF922B
:10022000BF92CF92DF92EF92FF920F931F93CF93E3
:10023000DF936C017B018B01040F151FEB015E0145
:10024000AE18BF08C017D10759F06991D601ED91DA
:10025000FC910190F081E02DC6010995892B79F779
:10026000C501DF91CF911F910F91FF90EF90DF902B
:10027000CF90BF90AF900895FC01538D448D252FF2
:1002800030E0842F90E0821B930B541710F0CF9630
:10029000089501970895FC01918D828D981761F062
:1002A000A28DAE0FBF2FB11D5D968C91928D9F5F79
:1002B0009F73928F90E008958FEF9FEF0895FC0158
:1002C000918D828D981731F0828DE80FF11D858D0B
:1002D00090E008958FEF9FEF0895FC01918D228D9E
:1002E000892F90E0805C9F4F821B91098F73992723
:1002F000089584E491E00E946D0121E0892B09F4C6
:1003000020E0822F089580E090E0892B29F00E9460
:10031000790181110C9400000895FC01A48DA80FAF
:10032000B92FB11DA35ABF4F2C91848D90E0019637
:100330008F739927848FA689B7892C93A089B18957
:100340008C91837080648C93938D848D981306C0F8
:100350000288F389E02D80818F7D80830895EF925C
:10036000FF920F931F93CF93DF93EC0181E0888F6F
:100370009B8D8C8D98131AC0E889F989808185FF3F
:1003800015C09FB7F894EE89FF896083E889F989E1
:1003900080818370806480839FBF81E090E0DF91E3
:1003A000CF911F910F91FF90EF900895F62E0B8D36
:1003B00010E00F5F1F4F0F731127E02E8C8D8E11F1
:1003C0000CC00FB607FCFACFE889F989808185FF58
:1003D000F5CFCE010E948D01F1CFEB8DEC0FFD2FFB
:1003E000F11DE35AFF4FF0829FB7F8940B8FEA8913
:1003F000FB8980818062CFCFCF93DF93EC01888D22
:100400008823B9F0AA89BB89E889F9898C9185FD8F
:1004100003C0808186FD0DC00FB607FCF7CF8C911D
:1004200085FFF2CF808185FFEDCFCE010E948D0147
:10043000E9CFDF91CF9108958E3008F08E5087700C
:10044000806480937C0080917A00806480937A003D
:1004500080917A0086FDFCCF8091780090917900A0
:100460000895CF93DF93EC0188819981DC01ED91B0
:10047000FC910190F081E02D09952A813B81820F4A
:10048000931F9B838A83DF91CF910895CF93DF934E
:10049000EC0188819981DC01ED91FC910280F3816E
:1004A000E02D09952A813B81820F931F9B838A83CC
:1004B000DF91CF9108958F929F92AF92BF92CF928A
:1004C000DF92EF92FF920F931F93CF93DF93CDB7FD
:1004D000DEB766970FB6F894DEBF0FBECDBF6C01D6
:1004E0008E01095E1F4F78018AE0882E912CA12C85
:1004F000B12CCB01BA01A50194010E94260D942FC5
:10050000852F605DF80162938F01A901692F782F13
:10051000411551056105710561F7A7014E1B5F0B80
:10052000BF01C6010E94460266960FB6F894DEBF70
:100530000FBECDBFDF91CF911F910F91FF90EF9034
:10054000DF90CF90BF90AF909F908F900895EF92E3
:10055000FF920F931F93CF93DF93EC017B0162E235
:100560000E9431028701F80161918F01662391F0A9
:10057000E2E1F1E0F280FF2049F0329681816813D8
:10058000F9CF6CE5CE010E9431026F2DCE010E94A1
:100590003102E9CF62E2CE01DF91CF911F910F913D
:1005A000FF90EF900C943102FC012581222339F059
:1005B000F8E02F0290011124820F931F089590E01C
:1005C00080E008950F931F93462F90E0FC01EC59B3
:1005D000FE4F6491FC01E05BFE4FE4914111462F18
:1005E000F0E0EE0FFF1FEE5CFE4F8591949100E46A
:1005F00012E42FE030E00E94CF06611571058105FD
:10060000910529F06F5F7F4F8F4F9F4F9F701F9114
:100610000F910895FB0101900020E9F73197AF0198
:10062000461B570B0C9446022F923F924F925F92BB
:100630006F927F928F929F92AF92BF92CF92DF92F2
:10064000EF92FF920F931F93CF93DF93CDB7DEB757
:100650006C970FB6F894DEBF0FBECDBF8C011B01A7
:10066000DC0114968C9114978F77863009F474C24C
:1006700078F48230B0F0843008F04CC212964D917C
:100680005C9113976D917C91C1010E94460226C234
:100690008C3069F160F4883009F459C28A3009F469
:1006A0003FC263E271E0C1010E940A03E5C18032EA
:1006B00009F4ECC18034A9F76BE5C1010E94310255
:1006C000F801008111810115110509F4DAC1B101A8
:1006D000C8010E941403C8010E94D4028C01892B16
:1006E00009F4CFC16CE2C1010E943102ECCFF801E4
:1006F000C080D180E280F380A7019601C701B601D6
:100700000E94BC098111CDCF20E030E0A901C701D2
:10071000B6010E94BC09882379F0A7019601C701A0
:10072000B6010E9450099B01AC01C701B6010E94AD
:10073000BC09882309F4B5CF20E030E0A901C70146
:10074000B6010E94BC0987FF08C06DE2C1010E948A
:100750003102F7FAF094F7F8F09420E836E948E12E
:100760005BE4C701B6010E941B0B87FD81C074E1E9
:10077000A72EB12C00E210E0188E1F8AF501E65E6C
:10078000FE4F2591359145915491C701B6010E94C4
:100790001B0B87FD13C0F501E651FF4F25913591E5
:1007A00045915491C701B6010E94700B6B017C0109
:1007B0002F89388D200F311F388F2F8B1595079576
:1007C00034E0A31AB1088CEFA8168FEFB806B1F683
:1007D00055245A9420E030E0A901C701B6010E94D7
:1007E0001B0B18160CF04BC02CEA35EC47E257E314
:1007F000C701B6010E94BC0918160CF440C0A52D13
:10080000B4E0AB02C0011124912C812CFC01EE5FFD
:10081000FE4F3F019C01265E3E4F59013FEF5316AC
:1008200071F1F301E80DF91D659175918591949130
:10083000A70196010E941B0B18169CF4F501E80D08
:10084000F91D2591359145915491C701B6010E943A
:10085000700B6B017C018F89988D801B910B988F99
:100860008F8B159507955A9494E0891A9108D6CFE5
:1008700000E210E055E0552E188E1F8AABCFC7015D
:10088000B6010E943A0A4B015C012B013C0106E0D3
:1008900080E492E4AFE0B0E0898F9A8FAB8FBC8F99
:1008A000102F01509AE04916510461047104C8F0F8
:1008B000698D7A8D8B8D9C8D2AE030E040E050E090
:1008C0000E94260D298F3A8F4B8F5C8FC301B20196
:1008D0002AE030E040E050E00E94260D29013A0174
:1008E000DFCFC501B4010E94690A9B01AC01C701B9
:1008F000B6010E944F096B017C01698D7A8D8B8D49
:100900009C8D0E94690A9B01AC01C701B6010E943F
:10091000700B2B013C010E943A0A6B017C010E9482
:10092000690A9B01AC01C301B2010E944F099B01FE
:10093000AC010E9450090E943A0AC60ED71EE81E5A
:10094000F91E898D9A8DAB8DBC8DC816D906EA0625
:10095000FB06D8F09FEF891A990AA90AB90AAF894C
:10096000B88DAB2B39F1BAE08B169104A104B10418
:1009700008F1EF89F88D3196F88FEF8BC12CD12CCF
:100980007601812C912C540183942AE0422E512C23
:10099000612C712CC701B601A30192010E94260DA2
:1009A000672B682B692B51F4111644F469017A0105
:1009B0001150F0CFC12CD12C7601E7CFB501A401A5
:1009C000C1010E945B02112371F14E01F1E18F0E12
:1009D000911C012F54019AE0492E512C612C712C4D
:1009E000015068F0C701B601A30192010E94260DD3
:1009F000605DD4016E934D0169017A01F1CF812FC1
:100A000090E0BC0160957095F501E81BF90B3197FA
:100A10008EE2808344275527461B570B6A0D7B1DAA
:100A2000C1010E944602EF89F88DEF2B29F165E69E
:100A3000C1010E9431020F89188D17FF07C06DE2B6
:100A4000C1010E943102119501951109FE017796AD
:100A50009F018AE0E82EF12CC801B7010E94120D17
:100A6000805D82938B01672BB9F7A9014E1B5F0B49
:100A7000BF01C1010E944602D10112968D919C9145
:100A800030C06DE5C1010E943102F6CF6BE7C101B4
:100A90000E943102F8010081118101151105D1F088
:100AA000D80116966D917C91C1010E94A7026AE35C
:100AB000C1010E943102B101C8010E941403C801A2
:100AC0000E94D4028C01892B29F06CE2C1010E94A2
:100AD0003102E3CF6DE7C1010E943102F101828151
:100AE00093816C960FB6F894DEBF0FBECDBFDF9139
:100AF000CF911F910F91FF90EF90DF90CF90BF901B
:100B0000AF909F908F907F906F905F904F903F90AD
:100B10002F9008956D917C91C1010E94A702DECFB4
:100B2000CD90DD90ED90FC90B701A601F7FE0BC0D3
:100B30006DE2C1010E94310244275527BA014C19C8
:100B40005D096E097F09C1010E945B02C7CF4D910B
:100B50005D916D917C91F7CF8C9168E271E081118C
:100B600002C06DE271E0C1010E940A03B7CFCF92CB
:100B7000DF92EF92FF920F931F93CF93DF93FC01CD
:100B80008481982F9F7739F48078806284831182E2
:100B9000108213821282848185FD0CC0D0E0C0E0F7
:100BA000CE01DF91CF911F910F91FF90EF90DF90D9
:100BB000CF9008956115710589F37A016B018F015A
:100BC000C081D1812097C1F16E817F816C157D0537
:100BD00039F36115710529F0C6010E944E0D892B6C
:100BE000F9F2CE010E94D402EC01ECCFE901289782
:100BF000F701D583C483209789F2D8011296ED912D
:100C0000FC911397309791F0CE018E1B9F0B23E040
:100C1000959587952A95E1F785831396DC93CE9376
:100C200012971D821C82DF82CE82BACFF801D18357
:100C3000C083D383C283F5CFD70114962D913C9105
:100C4000159712968D919C9108962817390770F682
:100C500081E0D70118968C93A3CF1F920F920FB605
:100C60000F9211242F933F938F939F93AF93BF9332
:100C70008091F2019091F301A091F401B091F501FE
:100C80003091F10123E0230F2D3758F50196A11D76
:100C9000B11D2093F1018093F2019093F301A09391
:100CA000F401B093F5018091ED019091EE01A091D6
:100CB000EF01B091F0010196A11DB11D8093ED01EE
:100CC0009093EE01A093EF01B093F001BF91AF912B
:100CD0009F918F913F912F910F900FBE0F901F907A
:100CE000189526E8230F0296A11DB11DD2CF1F92A1
:100CF0000F920FB60F9211242F933F934F935F9350
:100D00006F937F938F939F93AF93BF93EF93FF93D3
:100D100084E491E00E948D01FF91EF91BF91AF912A
:100D20009F918F917F916F915F914F913F912F9103
:100D30000F900FBE0F901F9018951F920F920FB635
:100D40000F9211242F938F939F93EF93FF93E09132
:100D50005401F09155018081E0915A01F0915B01BD
:100D600082FD1BC0908180915D018F5F8F73209108
:100D70005E01821741F0E0915D01F0E0EC5BFE4F17
:100D8000958F80935D01FF91EF919F918F912F91AE
:100D90000F900FBE0F901F9018958081F4CFCF92C7
:100DA000DF92EF92FF920F931F93E82FF92F05C068
:100DB000015011092109310961F19081962394179D
:100DC000B9F305C0015011092109310911F19081D0
:100DD00096239413F7CFC12CD12CE12CF12C0AC00F
:100DE0008FEFC81AD80AE80AF80A0C151D052E0557
:100DF0003F0579F080818623841791F36C2D7D2D3A
:100E00008E2D9F2D1F910F91FF90EF90DF90CF902F
:100E1000089560E070E080E090E01F910F91FF90F6
:100E2000EF90DF90CF900895CF93DF93CDB7DEB7EB
:100E3000CC5DD1090FB6F894DEBF0FBECDBF78945C
:100E400084B5826084BD84B5816084BD85B58260CF
:100E500085BD85B5816085BD80916E008160809380
:100E60006E001092810080918100826080938100E9
:100E700080918100816080938100809180008160F9
:100E8000809380008091B10084608093B100809154
:100E9000B00081608093B00080917A00846080937C
:100EA0007A0080917A00826080937A0080917A0043
:100EB000816080937A0080917A00806880937A00C4
:100EC0001092C100E0915401F091550182E08083BD
:100ED000E0915001F09151011082E0915201F091A6
:100EE000530180E1808310925C01E0915801F09100
:100EF000590186E08083E0915601F091570180818D
:100F000080618083E0915601F09157018081886073
:100F10008083E0915601F091570180818068808341
:100F2000E0915601F091570180818F7D80838EE0A2
:100F30000E94E7008FE00E94E70082E00E94E70045
:100F40005E018FE0A80EB11C8E0109521F4F84E490
:100F5000282E81E0382E90E0892E90E0992EBA82DA
:100F6000A982BC82AB821E830D8318870F831986EA
:100F70008E8580788E878EE00E941C02BC01990FBE
:100F8000880B990B0E946B0A2EE03BE340EA5BE37F
:100F90000E94700B6B017C01AC019B0160E070E072
:100FA00080EA90E40E944F0920E030E44CE156E4EE
:100FB0000E94700BA70196010E94C1099B01AC0120
:100FC00060E070E583EC97E40E94C1092EE336E20D
:100FD00045E95FE30E94DD0B6093E9017093EA014C
:100FE0008093EB019093EC018FE00E941C02BC0106
:100FF000990F880B990B0E946B0A9B01AC0160E072
:1010000070EC8FE794E40E94C10920E030E040E8F2
:101010005FE30E944F0920E030E44CE156E40E9477
:10102000700B0E94280B6B017C0128E137ED4BEB24
:1010300050E30E94700BA70196010E94700BA7015C
:1010400096010E94700B2B013C0127E13FE847E924
:1010500059E3C701B6010E94700B29E230E045E375
:101060005AE30E9450099B01AC01C301B2010E94E6
:1010700050099B01AC0160E070E080E89FE30E94B2
:10108000C10923E333E948E853E40E944F09609320
:10109000E5017093E6018093E7019093E80161E038
:1010A00082E00E94E2026B0160E082E00E94E202C4
:1010B0006C0D7D1D072E000C880B990B0E946B0A8E
:1010C0009B01AC0160E074E284E799E40E94C109ED
:1010D0006B017C01C092E101D092E201E092E30158
:1010E000F092E4014090E5015090E6016090E70144
:1010F0007090E80120E030E0A901C301B2010E9434
:101100001B0B20E030E040E05FE387FD8CC0C301B3
:10111000B2010E9450090E94330A2B013C01AE012A
:101120004F5F5F4F63E371E0CE010A960E94B705FF
:10113000FC01892B41F0948190789A6094834082DD
:101140005182628273824090E9015090EA0160907E
:10115000EB017090EC0120E030E0A901C301B20185
:101160000E941B0B20E030E040E05FE387FD60C0A1
:10117000C301B2010E9450090E94330A2B013C01B5
:10118000AE014F5F5F4F68E371E0CE010A960E94A7
:10119000B705FC01892B41F0948190789A60948383
:1011A000408251826282738220E030E0A901C7014F
:1011B000B6010E941B0B20E030E040E05FE387FDBA
:1011C0003CC0C701B6010E9450090E94330A6B015E
:1011D0007C01AE014F5F5F4F6EE371E0CE010A9676
:1011E0000E94B705FC01892B41F0948190789A60A8
:1011F0009483C082D182E282F382F801318220821C
:1012000013821282B801CE010A960E94140381143F
:10121000910409F4A4CE0E947901882309F49FCE99
:101220000E9400009CCEC301B2010E944F0973CFFF
:10123000C301B2010E944F099FCFC701B6010E94AE
:101240004F09C3CFE4E4F1E01382128288EE93E009
:10125000A0E0B0E084839583A683B78384E091E027
:101260009183808385EC90E09587848784EC90E07F
:101270009787868780EC90E0918B808B81EC90E063
:10128000938B828B82EC90E0958B848B86EC90E044
:10129000978B868B118E128E138E148E0895505854
:1012A000BB27AA270E9467090C94E10A0E94D30A6F
:1012B00038F00E94DA0A20F039F49F3F19F426F43E
:1012C0000C94D00A0EF4E095E7FB0C94CA0AE92FBF
:1012D0000E94F20A58F3BA1762077307840795074A
:1012E00020F079F4A6F50C94140B0EF4E0950B2E77
:1012F000BA2FA02D0B01B90190010C01CA01A00168
:101300001124FF27591B99F0593F50F4503E68F1C2
:101310001A16F040A22F232F342F4427585FF3CF03
:10132000469537952795A795F0405395C9F77EF4D4
:101330001F16BA0B620B730B840BBAF09150A1F01D
:10134000FF0FBB1F661F771F881FC2F70EC0BA0FA3
:10135000621F731F841F48F4879577956795B7952B
:10136000F7959E3F08F0B0CF9395880F08F0992726
:10137000EE0F9795879508950E94A60A08F481E0DC
:1013800008950E94D5090C94E10A0E94DA0A58F0E7
:101390000E94D30A40F029F45F3F29F00C94CA0A56
:1013A00051110C94150B0C94D00A0E94F20A68F3A8
:1013B0009923B1F3552391F3951B550BBB27AA270E
:1013C00062177307840738F09F5F5F4F220F331F48
:1013D000441FAA1FA9F335D00E2E3AF0E0E832D010
:1013E00091505040E695001CCAF72BD0FE2F29D013
:1013F000660F771F881FBB1F261737074807AB07E5
:10140000B0E809F0BB0B802DBF01FF2793585F4F59
:101410003AF09E3F510578F00C94CA0A0C94150BD3
:101420005F3FE4F3983ED4F3869577956795B7953B
:10143000F7959F5FC9F7880F911D9695879597F946
:101440000895E1E0660F771F881FBB1F62177307BF
:101450008407BA0720F0621B730B840BBA0BEE1FD4
:1014600088F7E09508950E943A0A6894B1110C94A7
:10147000150B08950E94FA0A88F09F5798F0B92F2B
:101480009927B751B0F0E1F0660F771F881F991FB9
:101490001AF0BA95C9F714C0B13091F00E94140B3C
:1014A000B1E008950C94140B672F782F8827B85F4C
:1014B00039F0B93FCCF3869577956795B395D9F711
:1014C0003EF490958095709561957F4F8F4F9F4F1B
:1014D0000895E89409C097FB3EF490958095709527
:1014E00061957F4F8F4F9F4F9923A9F0F92F96E970
:1014F000BB279395F695879577956795B795F111E5
:10150000F8CFFAF4BB0F11F460FF1BC06F5F7F4F81
:101510008F4F9F4F16C0882311F096E911C0772393
:1015200021F09EE8872F762F05C0662371F096E89C
:10153000862F70E060E02AF09A95660F771F881F6B
:10154000DAF7880F9695879597F90895990F00080F
:10155000550FAA0BE0E8FEEF16161706E807F90785
:10156000C0F012161306E407F50798F0621B730B20
:10157000840B950B39F40A2661F0232B242B252BA1
:1015800021F408950A2609F4A140A6958FEF811D44
:10159000811D089597F99F6780E870E060E00895E5
:1015A0009FEF80EC089500240A941616170618067B
:1015B0000906089500240A94121613061406050657
:1015C0000895092E0394000C11F4882352F0BB0FE8
:1015D00040F4BF2B11F460FF04C06F5F7F4F8F4F4B
:1015E0009F4F089557FD9058440F551F59F05F3F86
:1015F00071F04795880F97FB991F61F09F3F79F035
:1016000087950895121613061406551FF2CF4695B6
:10161000F1DF08C0161617061806991FF1CF869538
:101620007105610508940895E894BB27662777271C
:10163000CB0197F908950E94A60A08F48FEF089548
:1016400016F00C94670C0C94D00A68940C94CA0A97
:101650000E94FA0AA8F39923C1F3AEF3DF93CF9364
:101660001F930F93FF92C92FDD2788232AF021971C
:10167000660F771F881FDAF720E030E040E85FEB65
:101680009FE3883920F0803E38F021968F770E94C2
:101690005009E8E6F0E004C00E945009E5E9F0E0F6
:1016A0000E94750C8B01BE01EC01FB2E6F57710976
:1016B0007595771F880B990B0E946B0A28E132E71A
:1016C00041E35FE30E94830BAF2D9801AE01FF90D1
:1016D0000F911F91CF91DF910E9467090C94E10A4D
:1016E0000E94830B0C94E10A0E94D30A38F00E94F6
:1016F000DA0A20F0952311F00C94CA0A0C94D00A4F
:1017000011240C94150B0E94F20A70F3959FC1F3FB
:10171000950F50E0551F629FF001729FBB27F00D9F
:10172000B11D639FAA27F00DB11DAA1F649F6627F4
:10173000B00DA11D661F829F2227B00DA11D621F43
:10174000739FB00DA11D621F839FA00D611D221FFD
:10175000749F3327A00D611D231F849F600D211DE1
:10176000822F762F6A2F11249F5750409AF0F1F064
:1017700088234AF0EE0FFF1FBB1F661F771F881FCD
:1017800091505040A9F79E3F510580F00C94CA0A31
:101790000C94150B5F3FE4F3983ED4F38695779550
:1017A0006795B795F795E7959F5FC1F7FE2B880F73
:1017B000911D9695879597F90895FA01EE0FFF1FF1
:1017C000309621053105A1F16115710561F480386C
:1017D000BFE39B0749F168949038810561F0803838
:1017E000BFEF9B0741F099234AF5FF3FE105310523
:1017F000210519F1E8940894E795D901AA2329F461
:10180000AB2FBE2FF85FD0F310C0FF5F70F4A6952A
:10181000E0F7F73950F019F0FF3A38F49F779F93CB
:101820000DD00F9007FC9058089546F00C94D00A04
:1018300060E070E080E89FE308954FE79F775F9353
:101840004F933F932F930E94280B2F913F914F91DD
:101850005F910E94700B0C94350C29F416F00C94D7
:10186000CA0A0C94140B0C94D00A0E94FA0AA8F32A
:101870009638A0F707F80F92E8942BE33AEA48EB82
:101880005FE70E94860B0F920F920F924DB75EB7E3
:101890000F920E94DE0CE2ECF0E00E94750C4F917A
:1018A0005F91EF91FF91E595EE1FFF1F49F0FE5705
:1018B000E0684427EE0F441FFA95E1F74195550B78
:1018C0000E94A80C0F9007FE0C949C0C08959F3F5B
:1018D00031F0915020F4879577956795B795880FEB
:1018E000911D9695879597F90895DF93CF931F9350
:1018F0000F93FF92EF92DF927B018C01689406C0F8
:10190000DA2EEF010E94830BFE01E894A591259148
:10191000359145915591A6F3EF010E946709FE01AB
:101920009701A801DA9469F7DF90EF90FF900F918B
:101930001F91CF91DF9108959B01AC0160E070E0B1
:1019400080E89FE30C94C1090C94CA0A0C94670CBC
:101950000E94FA0AD8F39923C9F3940F511DA3F3F7
:101960009150504094F059F0882332F0660F771F61
:10197000881F91505040C1F79E3F51052CF7880FAA
:10198000911D9695879597F908955F3FACF0983E25
:101990009CF0BB27869577956795B79508F4B1605D
:1019A0009395C1F7BB0F58F711F460FFE8CF6F5F55
:1019B0007F4F8F4F9F4FE3CF0C94150BFA01DC0143
:1019C000AA0FBB1F9B01AC01BF5728F42227332766
:1019D0004427507820C0B75190F4AB2F002446958F
:1019E00037952795011CA395D2F3002071F0220FA3
:1019F000331F441FB395DAF30ED00C944F096130B6
:101A00007105A0E88A07B94630F49B01AC0166274E
:101A1000772788279078309621F02083318342837E
:101A200053830895AA1BBB1B51E107C0AA1FBB1F0C
:101A3000A617B70710F0A61BB70B881F991F5A955A
:101A4000A9F780959095BC01CD010895A1E21A2EC9
:101A5000AA1BBB1BFD010DC0AA1FBB1FEE1FFF1F52
:101A6000A217B307E407F50720F0A21BB30BE40BA2
:101A7000F50B661F771F881F991F1A9469F76095E9
:101A80007095809590959B01AC01BD01CF010895A3
:101A9000EE0FFF1F0590F491E02D0994FB01DC018E
:101AA0008D91019080190110D9F3990B0895F89444
:021AB000FFCF66
:101AB20000000000AF010F013C01FC016D014B0170
:101AC2005F012F2F22225C5C6208660C6E0A720D87
:101AD2007409006E756C6C00747275650066616CD9
:101AE20073650074656D70006C6967687400766573
:041AF2006E746F009F
:00000001FF
