:100000000C94C7000C948E070C9467070C94EF00B7
:100010000C94EF000C94EF000C94EF000C94EF00A4
:100020000C94EF000C94EF000C94EF000C94EF0094
:100030000C94EF000C94EF000C94EF000C94EF0084
:100040000C941D070C94EF000C94EB060C94C50661
:100050000C94EF000C94EF000C94EF000C94EF0064
:100060000C94EF000C94EF0008000000BE922449AD
:10007000123EABAAAA2ABECDCCCC4C3E00000080DA
:10008000BEABAAAAAA3E00000000BF000000803F4D
:100090000000000000084178D3BB4387D1133D190D
:1000A0000E3CC3BD4282AD2B3E68EC8276BED98F3A
:1000B000E1A93E4C80EFFFBE01C4FF7F3F0000007E
:1000C000000007634236B79BD8A71A39685618AEA6
:1000D000BAAB558C1D3CB7CC5763BD6DEDFD753E7D
:1000E000F6177231BF000000803F000000002300BF
:1000F00026002900CDCCCC3D0AD7233C17B7D138F8
:1001000077CC2B329595E6241FB14F0A0000803F33
:10011000CDCCCC3D6F12833A95BFD6337D1D902652
:10012000B3CE010C000020410000C84200401C4634
:1001300020BCBE4CCA1B0E5AAEC59D740000000800
:10014000000201000003040700000000000000009E
:1001500000000000250028002B0000000000240003
:1001600027002A0004040404040404040202020216
:10017000020203030303030301020408102040806A
:10018000010204081020010204081020B507112400
:100190001FBECFEFD8E0DEBFCDBF11E0A0E0B1E0E1
:1001A000EAECFCE102C005900D92A834B107D9F742
:1001B00022E0A8E4B1E001C01D92A832B207E1F745
:1001C00010E0C7ECD0E004C02197FE010E94540E5D
:1001D000C63CD107C9F70E94F4070C94630E0C9437
:1001E0000000CF93DF9390E0FC01E858FE4F24918C
:1001F0008C599E4FFC0184918823C1F090E0880FB8
:10020000991FFC01E65AFE4FC591D491FC01E05BB9
:10021000FE4FA591B4919FB7F8948881E22FE095A5
:100220008E2388838C91E823EC939FBFDF91CF913D
:100230000895AF92BF92CF92DF92EF92FF920F9309
:100240001F93CF93DF936C017B018B01040F151F6C
:10025000EB015E01AE18BF08C017D10759F06991D4
:10026000D601ED91FC910190F081E02DC601099538
:10027000892B79F7C501DF91CF911F910F91FF90E5
:10028000EF90DF90CF90BF90AF900895FC01538D19
:10029000448D252F30E0842F90E0821B930B541760
:1002A00010F0CF96089501970895FC01918D828DED
:1002B000981761F0A28DAE0FBF2FB11D5D968C9186
:1002C000928D9F5F9F73928F90E008958FEF9FEFC5
:1002D0000895FC01918D828D981731F0828DE80F81
:1002E000F11D858D90E008958FEF9FEF0895FC013B
:1002F000918D228D892F90E0805C9F4F821B910908
:100300008F739927089585E691E00E94770121E097
:10031000892B09F420E0822F089580E090E0892B5A
:1003200029F00E94830181110C9400000895FC01C2
:10033000A48DA80FB92FB11DA35ABF4F2C91848D46
:1003400090E001968F739927848FA689B7892C93A3
:10035000A089B1898C91837080648C93938D848DF6
:10036000981306C00288F389E02D80818F7D8083F9
:100370000895EF92FF920F931F93CF93DF93EC01B9
:1003800081E0888F9B8D8C8D98131AC0E889F9893C
:10039000808185FF15C09FB7F894EE89FF8960833F
:1003A000E889F98980818370806480839FBF81E0C0
:1003B00090E0DF91CF911F910F91FF90EF90089502
:1003C000F62E0B8D10E00F5F1F4F0F731127E02EDD
:1003D0008C8D8E110CC00FB607FCFACFE889F98915
:1003E000808185FFF5CFCE010E949701F1CFEB8D83
:1003F000EC0FFD2FF11DE35AFF4FF0829FB7F894E9
:100400000B8FEA89FB8980818062CFCFCF93DF9306
:10041000EC01888D8823B9F0AA89BB89E889F9891C
:100420008C9185FD03C0808186FD0DC00FB607FC51
:10043000F7CF8C9185FFF2CF808185FFEDCFCE0184
:100440000E949701E9CFDF91CF910895833081F029
:1004500028F4813099F08230A9F008958730A9F00E
:100460008830C9F08430B1F4809180008F7D03C062
:10047000809180008F7780938000089584B58F7776
:1004800084BD089584B58F7DFBCF8091B0008F77B8
:100490008093B00008958091B0008F7DF9CF1F93B5
:1004A000CF93DF93282F30E0F901E45CFE4F849175
:1004B000F901E858FE4FD491F901EC59FE4FC4916F
:1004C000CC23A9F0162F81110E942602EC2FF0E018
:1004D000EE0FFF1FE05BFE4FA591B4918FB7F8942C
:1004E000EC91111108C0D095DE23DC938FBFDF9112
:1004F000CF911F910895DE2BF8CF8E3008F08E50EB
:100500008770806480937C0080917A0080648093FF
:100510007A0080917A0086FDFCCF809178009091DE
:10052000790008953FB7F8948091490190914A016C
:10053000A0914B01B0914C0126B5A89B05C02F3F5F
:1005400019F00196A11DB11D3FBFBA2FA92F982FF9
:100550008827BC01CD01620F711D811D911D42E0F4
:10056000660F771F881F991F4A95D1F70895089540
:10057000CF93DF93EC0188819981DC01ED91FC91AF
:100580000190F081E02D09952A813B81820F931F14
:100590009B838A83DF91CF910895CF93DF93EC0102
:1005A00088819981DC01ED91FC910280F381E02D3D
:1005B00009952A813B81820F931F9B838A83DF9158
:1005C000CF9108958F929F92AF92BF92CF92DF9278
:1005D000EF92FF920F931F93CF93DF93CDB7DEB7C8
:1005E00066970FB6F894DEBF0FBECDBF6C018E01CB
:1005F000095E1F4F78018AE0882E912CA12CB12C26
:10060000CB01BA01A50194010E94320E942F852FCF
:10061000605DF80162938F01A901692F782F411560
:1006200051056105710561F7A7014E1B5F0BBF0105
:10063000C6010E94CD0266960FB6F894DEBF0FBECB
:10064000CDBFDF91CF911F910F91FF90EF90DF9081
:10065000CF90BF90AF909F908F900895EF92FF92B0
:100660000F931F93CF93DF93EC017B0162E20E9413
:10067000B8028701F80161918F01662391F0E6E1EC
:10068000F1E0F280FF2049F0329681816813F9CFC2
:100690006CE5CE010E94B8026F2DCE010E94B80217
:1006A000E9CF62E2CE01DF91CF911F910F91FF90D0
:1006B000EF900C94B802CF93DF93EEE3F1E08491D6
:1006C000EAE7F1E0D491E6E6F1E0C49170E060E0A1
:1006D000CC2399F081110E942602EC2FF0E0EE0F5E
:1006E000FF1FE651FF4FA591B491EC91ED2391E0EE
:1006F00080E009F490E0692F782F81E0682782E09C
:100700000E944F028091550190915601A09157018E
:10071000B09158010196A11DB11D80935501909390
:100720005601A0935701B0935801DF91CF910895DE
:10073000FC012581222339F0F8E02F0290011124D9
:10074000820F931F089590E080E008950F931F9308
:10075000CF93DF938C0190910F02892F8F7761F4F3
:100760009078906290930F0210920C0210920B02FC
:1007700010920E0210920D0280910F0285FD08C0AA
:10078000D0E0C0E0CE01DF91CF911F910F9108958D
:1007900001151105A9F3C0910B02D0910C0220970D
:1007A000B9F16E817F816017710761F36115710581
:1007B00029F0C8010E945A0E892B21F3CE010E9414
:1007C0009803EC01ECCFE9012897D0930702C0937E
:1007D00006022097A9F2E0910D02F0910E023097E7
:1007E00091F0CE018E1B9F0B23E0959587952A955E
:1007F000E1F78583D0930E02C0930D021D821C8207
:100800001F830E83BFCFD0930C02C0930B02F2CF95
:100810002091060230910702809104029091050216
:1008200008962817390778F681E080930A02AACF44
:10083000FB0101900020E9F73197AF01461B570BF0
:100840000C94CD022F923F924F925F926F927F92C3
:100850008F929F92AF92BF92CF92DF92EF92FF92D0
:100860000F931F93CF93DF93CDB7DEB76C970FB67F
:10087000F894DEBF0FBECDBF8C011B01DC011496C6
:100880008C9114978F77863009F474C278F4823093
:10089000B0F0843008F04CC212964D915C911397E1
:1008A0006D917C91C1010E94CD0226C28C3069F10C
:1008B00060F4883009F459C28A3009F43FC267E213
:1008C00071E0C1010E941804E5C1803209F4ECC155
:1008D0008034A9F76BE5C1010E94B802F8010081DC
:1008E00011810115110509F4DAC1B101C8010E9495
:1008F0002204C8010E9498038C01892B09F4CFC1FE
:100900006CE2C1010E94B802ECCFF801C080D18036
:10091000E280F380A7019601C701B6010E94C80AD0
:100920008111CDCF20E030E0A901C701B6010E94BE
:10093000C80A882379F0A7019601C701B6010E9471
:100940005C0A9B01AC01C701B6010E94C80A88235A
:1009500009F4B5CF20E030E0A901C701B6010E943B
:10096000C80A87FF08C06DE2C1010E94B802F7FA09
:10097000F094F7F8F09420E836E948E15BE4C70129
:10098000B6010E94270C87FD81C074E1A72EB12C0F
:1009900000E210E0188E1F8AF501EC5DFE4F2591F4
:1009A000359145915491C701B6010E94270C87FDEE
:1009B00013C0F501EC50FF4F2591359145915491AD
:1009C000C701B6010E947C0C6B017C012F89388D18
:1009D000200F311F388F2F8B1595079534E0A31A00
:1009E000B1088CEFA8168FEFB806B1F655245A94CB
:1009F00020E030E0A901C701B6010E94270C1816BB
:100A00000CF04BC02CEA35EC47E257E3C701B601C6
:100A10000E94C80A18160CF440C0A52DB4E0AB0221
:100A2000C0011124912C812CFC01E45FFE4F3F0199
:100A30009C012C5D3E4F59013FEF531671F1F301BC
:100A4000E80DF91D6591759185919491A701960125
:100A50000E94270C18169CF4F501E80DF91D25914C
:100A6000359145915491C701B6010E947C0C6B01F0
:100A70007C018F89988D801B910B988F8F8B15959A
:100A800007955A9494E0891A9108D6CF00E210E0B5
:100A900055E0552E188E1F8AABCFC701B6010E94B4
:100AA000460B4B015C012B013C0106E080E492E423
:100AB000AFE0B0E0898F9A8FAB8FBC8F102F0150C1
:100AC0009AE04916510461047104C8F0698D7A8D69
:100AD0008B8D9C8D2AE030E040E050E00E94320E89
:100AE000298F3A8F4B8F5C8FC301B2012AE030E02F
:100AF00040E050E00E94320E29013A01DFCFC501EB
:100B0000B4010E94750B9B01AC01C701B6010E94A4
:100B10005B0A6B017C01698D7A8D8B8D9C8D0E94A7
:100B2000750B9B01AC01C701B6010E947C0C2B0127
:100B30003C010E94460B6B017C010E94750B9B01DE
:100B4000AC01C301B2010E945B0A9B01AC010E948F
:100B50005C0A0E94460BC60ED71EE81EF91E898D40
:100B60009A8DAB8DBC8DC816D906EA06FB06D8F067
:100B70009FEF891A990AA90AB90AAF89B88DAB2BD8
:100B800039F1BAE08B169104A104B10408F1EF89A0
:100B9000F88D3196F88FEF8BC12CD12C7601812CFA
:100BA000912C540183942AE0422E512C612C712CFB
:100BB000C701B601A30192010E94320E672B682B78
:100BC000692B51F4111644F469017A011150F0CFE8
:100BD000C12CD12C7601E7CFB501A401C1010E943F
:100BE000E202112371F14E01F1E18F0E911C012FF0
:100BF00054019AE0492E512C612C712C015068F05F
:100C0000C701B601A30192010E94320E605DD401BA
:100C10006E934D0169017A01F1CF812F90E0BC0103
:100C200060957095F501E81BF90B31978EE2808392
:100C300044275527461B570B6A0D7B1DC1010E9497
:100C4000CD02EF89F88DEF2B29F165E6C1010E94F5
:100C5000B8020F89188D17FF07C06DE2C1010E940D
:100C6000B802119501951109FE0177969F018AE05E
:100C7000E82EF12CC801B7010E941E0E805D829300
:100C80008B01672BB9F7A9014E1B5F0BBF01C10197
:100C90000E94CD02D10112968D919C9130C06DE5DC
:100CA000C1010E94B802F6CF6BE7C1010E94B802F1
:100CB000F8010081118101151105D1F0D8011696B6
:100CC0006D917C91C1010E942E036AE3C1010E94D3
:100CD000B802B101C8010E942204C8010E94980311
:100CE0008C01892B29F06CE2C1010E94B802E3CF8C
:100CF0006DE7C1010E94B802F101828193816C9677
:100D00000FB6F894DEBF0FBECDBFDF91CF911F911C
:100D10000F91FF90EF90DF90CF90BF90AF909F909A
:100D20008F907F906F905F904F903F902F9008959D
:100D30006D917C91C1010E942E03DECFCD90DD909C
:100D4000ED90FC90B701A601F7FE0BC06DE2C1016A
:100D50000E94B80244275527BA014C195D096E0953
:100D60007F09C1010E94E202C7CF4D915D916D9153
:100D70007C91F7CF8C916CE271E0811102C061E34C
:100D800071E0C1010E941804B7CF1F920F920FB6F5
:100D90000F9211242F933F934F935F936F937F9301
:100DA0008F939F93AF93BF93EF93FF9385E691E06B
:100DB0000E949701FF91EF91BF91AF919F918F9109
:100DC0007F916F915F914F913F912F910F900FBE47
:100DD0000F901F9018951F920F920FB60F9211242B
:100DE0002F938F939F93EF93FF93E0917501F09171
:100DF00076018081E0917B01F0917C0182FD1BC036
:100E0000908180917E018F5F8F7320917F01821787
:100E100041F0E0917E01F0E0EB59FE4F958F809319
:100E20007E01FF91EF919F918F912F910F900FBEB7
:100E30000F901F9018958081F4CF1F920F920FB6DC
:100E40000F9211242F933F938F939F93AF93BF9350
:100E500080914D0190914E01A0914F01B0915001B0
:100E60003091480123E0230F2D3758F50196A11D3D
:100E7000B11D2093480180934D0190934E01A093A2
:100E80004F01B09350018091490190914A01A09186
:100E90004B01B0914C010196A11DB11D80934901F8
:100EA00090934A01A0934B01B0934C01BF91AF9135
:100EB0009F918F913F912F910F900FBE0F901F9098
:100EC000189526E8230F0296A11DB11DD2CF1F92BF
:100ED0000F920FB60F9211242F933F934F935F936E
:100EE0006F937F938F939F93AF93BF93EF93FF93F2
:100EF000E0910201F09103010995FF91EF91BF91FB
:100F0000AF919F918F917F916F915F914F913F91A1
:100F10002F910F900FBE0F901F9018951F920F9258
:100F20000FB60F9211242F933F934F935F936F93BC
:100F30007F938F939F93AF93BF93EF93FF93E09132
:100F40000001F09101010995FF91EF91BF91AF91DF
:100F50009F918F917F916F915F914F913F912F91D1
:100F60000F900FBE0F901F901895E5E6F1E01382E9
:100F7000128288EE93E0A0E0B0E084839583A6839C
:100F8000B78388E091E09183808385EC90E095873A
:100F9000848784EC90E09787868780EC90E0918B43
:100FA000808B81EC90E0938B828B82EC90E0958B30
:100FB000848B86EC90E0978B868B118E128E138E2D
:100FC000148EE2E0F2E080E192E0918380839383EB
:100FD000828388E292E09583848397838683108658
:100FE0008585807885870895CF93DF9300D000D0E2
:100FF00000D0CDB7DEB7789484B5826084BD84B567
:10100000816084BD85B5826085BD85B5816085BD03
:1010100080916E00816080936E00109281008091BB
:101020008100826080938100809181008160809343
:101030008100809180008160809380008091B10068
:1010400084608093B1008091B00081608093B00093
:1010500080917A00846080937A0080917A00826027
:1010600080937A0080917A00816080937A008091E9
:101070007A00806880937A001092C100E091750137
:10108000F091760182E08083E0917101F09172012C
:101090001082E0917301F09174018FEC80831092C3
:1010A0007D01E0917901F0917A0186E08083E09101
:1010B0007701F0917801808180618083E0917701F0
:1010C000F0917801808188608083E0917701F091D0
:1010D0007801808180688083E0917701F0917801C8
:1010E00080818F7D80838EE00E94F1008FE00E94DE
:1010F000F10082E00E94F10061E082E00E944F0274
:101100000BE513E09CE3392E25E6E22E21E0F22EDA
:1011100030E0C32E30E0D32E8EE00E947D02BC0171
:10112000990F880B990B0E94770B2EE03BE340EA66
:101130005BE30E947C0C4B015C01AC019B0160E015
:1011400070E080EA90E40E945B0A20E030E44CE129
:1011500056E40E947C0CA50194010E94CD0A9B01DB
:10116000AC0160E070E583EC97E40E94CD0A2EE3C9
:1011700036E245E95FE30E94E90C609361017093F8
:10118000620180936301909364018FE00E947D026D
:10119000BC01990F880B990B0E94770B9B01AC0146
:1011A00060E070EC8FE794E40E94CD0A20E030E02C
:1011B00040E85FE30E945B0A20E030E44CE156E443
:1011C0000E947C0C0E94340C4B015C0128E137ED3D
:1011D0004BEB50E30E947C0CA50194010E947C0C17
:1011E000A50194010E947C0C2B013C0127E13FE802
:1011F00047E959E3C501B4010E947C0C29E230E0C3
:1012000045E35AE30E945C0A9B01AC01C301B201B1
:101210000E945C0A9B01AC0160E070E080E89FE303
:101220000E94CD0A23E333E948E853E40E945B0AB5
:1012300060935D0170935E0180935F019093600104
:1012400010925501109256011092570110925801B8
:1012500010930101009300018091690083608093E5
:101260006900E89A2FB7F89480914D0190914E0152
:10127000A0914F01B09150012FBF809351019093E5
:101280005201A0935301B09354018FB7F894409149
:101290004D0150914E0160914F01709150018FBFEF
:1012A0008091510190915201A0915301B09154014C
:1012B00088519C4FAF4FBF4F481759076A077B07AC
:1012C00020F38091550190915601A0915701B09162
:1012D0005801389EB001399E700D112490E080E0D5
:1012E0000E94750B26E23FE54DE854E40E947C0C19
:1012F00020E030E040E752E40E94CD0A20E030E0F8
:101300004AE754E40E94CD0A26E636E646E650E473
:101310000E947C0C4B015C018092590190925A0111
:10132000A0925B01B0925C0140905D0150905E0123
:1013300060905F017090600120E030E0A901C3017E
:10134000B2010E94270C20E030E040E05FE387FD1F
:10135000A3C0C301B2010E945C0A0E943F0B2B0193
:101360003C0187E391E00E94A603FC01892B41F038
:10137000948190789A6094834082518262827382D1
:10138000409061015090620160906301709064012F
:1013900020E030E0A901C301B2010E94270C20E047
:1013A00030E040E05FE387FD7CC0C301B2010E94F2
:1013B0005C0A0E943F0B2B013C018CE391E00E94F0
:1013C000A603FC01892B41F0948190789A60948364
:1013D000408251826282738220E030E0A901C5011F
:1013E000B4010E94270C20E030E040E05FE387FD7D
:1013F0005DC0C501B4010E945C0A0E943F0B4B0115
:101400005C0182E491E00E94A603FC01892B41F07B
:10141000948190789A60948380829182A282B38230
:10142000FA82E9821C821B82BE016F5F7F4F8BE0D4
:1014300092E00E9422040E9492022B013C018EE560
:10144000882E99249394A12CB12C0E9492026419A5
:10145000750986099709683E734081059105A8F3CF
:1014600021E0821A9108A108B10888EE480E83E0B5
:10147000581E611C711C81149104A104B10429F748
:10148000C114D10409F448CE0E948301882309F4D1
:1014900043CE0E94000040CEC301B2010E945B0A0D
:1014A0005CCFC301B2010E945B0A83CFC501B401C6
:1014B0000E945B0AA2CF5058BB27AA270E94730A3A
:1014C0000C94ED0B0E94DF0B38F00E94E60B20F02D
:1014D00039F49F3F19F426F40C94DC0B0EF4E095DC
:1014E000E7FB0C94D60BE92F0E94FE0B58F3BA17BA
:1014F000620773078407950720F079F4A6F50C942A
:10150000200C0EF4E0950B2EBA2FA02D0B01B90183
:1015100090010C01CA01A0011124FF27591B99F069
:10152000593F50F4503E68F11A16F040A22F232F75
:10153000342F4427585FF3CF469537952795A795C5
:10154000F0405395C9F77EF41F16BA0B620B730B6C
:10155000840BBAF09150A1F0FF0FBB1F661F771FDD
:10156000881FC2F70EC0BA0F621F731F841F48F492
:10157000879577956795B795F7959E3F08F0B0CF1B
:101580009395880F08F09927EE0F97958795089502
:101590000E94B20B08F481E008950E94E10A0C94C5
:1015A000ED0B0E94E60B58F00E94DF0B40F029F48F
:1015B0005F3F29F00C94D60B51110C94210C0C9424
:1015C000DC0B0E94FE0B68F39923B1F3552391F3D2
:1015D000951B550BBB27AA2762177307840738F0A2
:1015E0009F5F5F4F220F331F441FAA1FA9F335D0FF
:1015F0000E2E3AF0E0E832D091505040E695001CB3
:10160000CAF72BD0FE2F29D0660F771F881FBB1F6C
:10161000261737074807AB07B0E809F0BB0B802D4A
:10162000BF01FF2793585F4F3AF09E3F510578F076
:101630000C94D60B0C94210C5F3FE4F3983ED4F34A
:10164000869577956795B795F7959F5FC9F7880F4A
:10165000911D9695879597F90895E1E0660F771F9C
:10166000881FBB1F621773078407BA0720F0621B2D
:10167000730B840BBA0BEE1F88F7E09508950E9458
:10168000460B6894B1110C94210C08950E94060C2D
:1016900088F09F5798F0B92F9927B751B0F0E1F033
:1016A000660F771F881F991F1AF0BA95C9F714C0E3
:1016B000B13091F00E94200CB1E008950C94200C00
:1016C000672F782F8827B85F39F0B93FCCF386951C
:1016D00077956795B395D9F73EF490958095709579
:1016E00061957F4F8F4F9F4F0895E89409C097FBF6
:1016F0003EF490958095709561957F4F8F4F9F4FE9
:101700009923A9F0F92F96E9BB279395F69587952C
:1017100077956795B795F111F8CFFAF4BB0F11F4EF
:1017200060FF1BC06F5F7F4F8F4F9F4F16C0882396
:1017300011F096E911C0772321F09EE8872F762FCC
:1017400005C0662371F096E8862F70E060E02AF00D
:101750009A95660F771F881FDAF7880F96958795F9
:1017600097F90895990F0008550FAA0BE0E8FEEFCE
:1017700016161706E807F907C0F012161306E40755
:10178000F50798F0621B730B840B950B39F40A264E
:1017900061F0232B242B252B21F408950A2609F42C
:1017A000A140A6958FEF811D811D089597F99F6730
:1017B00080E870E060E008959FEF80EC08950024D9
:1017C0000A941616170618060906089500240A94A6
:1017D00012161306140605060895092E0394000C2C
:1017E00011F4882352F0BB0F40F4BF2B11F460FFBB
:1017F00004C06F5F7F4F8F4F9F4F089557FD9058E4
:10180000440F551F59F05F3F71F04795880F97FBC4
:10181000991F61F09F3F79F087950895121613067E
:101820001406551FF2CF4695F1DF08C016161706AD
:101830001806991FF1CF86957105610508940895E2
:10184000E894BB2766277727CB0197F908950E9474
:10185000B20B08F48FEF089516F00C94730D0C94EE
:10186000DC0B68940C94D60B0E94060CA8F3992309
:10187000C1F3AEF3DF93CF931F930F93FF92C92F62
:10188000DD2788232AF02197660F771F881FDAF754
:1018900020E030E040E85FEB9FE3883920F0803EB5
:1018A00038F021968F770E945C0AE8E6F0E004C0E9
:1018B0000E945C0AE5E9F0E00E94810D8B01BE0107
:1018C000EC01FB2E6F5771097595771F880B990BEB
:1018D0000E94770B28E132E741E35FE30E948F0C1F
:1018E000AF2D9801AE01FF900F911F91CF91DF9125
:1018F0000E94730A0C94ED0B0E948F0C0C94ED0B5C
:101900000E94DF0B38F00E94E60B20F0952311F0C7
:101910000C94D60B0C94DC0B11240C94210C0E941B
:10192000FE0B70F3959FC1F3950F50E0551F629F1A
:10193000F001729FBB27F00DB11D639FAA27F00D28
:10194000B11DAA1F649F6627B00DA11D661F829F4F
:101950002227B00DA11D621F739FB00DA11D621F34
:10196000839FA00D611D221F749F3327A00D611D51
:10197000231F849F600D211D822F762F6A2F112433
:101980009F5750409AF0F1F088234AF0EE0FFF1F66
:10199000BB1F661F771F881F91505040A9F79E3FBD
:1019A000510580F00C94D60B0C94210C5F3FE4F3AE
:1019B000983ED4F3869577956795B795F795E79513
:1019C0009F5FC1F7FE2B880F911D9695879597F91C
:1019D0000895FA01EE0FFF1F309621053105A1F1A0
:1019E0006115710561F48038BFE39B0749F1689484
:1019F0009038810561F08038BFEF9B0741F0992353
:101A00004AF5FF3FE1053105210519F1E8940894F5
:101A1000E795D901AA2329F4AB2FBE2FF85FD0F3A5
:101A200010C0FF5F70F4A695E0F7F73950F019F099
:101A3000FF3A38F49F779F930DD00F9007FC905892
:101A4000089546F00C94DC0B60E070E080E89FE3C2
:101A500008954FE79F775F934F933F932F930E9493
:101A6000340C2F913F914F915F910E947C0C0C940C
:101A7000410D29F416F00C94D60B0C94200C0C9408
:101A8000DC0B0E94060CA8F39638A0F707F80F921B
:101A9000E8942BE33AEA48EB5FE70E94920C0F923E
:101AA0000F920F924DB75EB70F920E94EA0DE2ECD3
:101AB000F0E00E94810D4F915F91EF91FF91E595CC
:101AC000EE1FFF1F49F0FE57E0684427EE0F441F4A
:101AD000FA95E1F74195550B0E94B40D0F9007FE62
:101AE0000C94A80D08959F3F31F0915020F48795F4
:101AF00077956795B795880F911D9695879597F976
:101B00000895DF93CF931F930F93FF92EF92DF928D
:101B10007B018C01689406C0DA2EEF010E948F0CC5
:101B2000FE01E894A5912591359145915591A6F333
:101B3000EF010E94730AFE019701A801DA9469F788
:101B4000DF90EF90FF900F911F91CF91DF9108955B
:101B50009B01AC0160E070E080E89FE30C94CD0A4B
:101B60000C94D60B0C94730D0E94060CD8F3992399
:101B7000C9F3940F511DA3F39150504094F059F0C4
:101B8000882332F0660F771F881F91505040C1F7AD
:101B90009E3F51052CF7880F911D9695879597F9D3
:101BA00008955F3FACF0983E9CF0BB2786957795F3
:101BB0006795B79508F4B1609395C1F7BB0F58F7D7
:101BC00011F460FFE8CF6F5F7F4F8F4F9F4FE3CFE0
:101BD0000C94210CFA01DC01AA0FBB1F9B01AC0184
:101BE000BF5728F4222733274427507820C0B75105
:101BF00090F4AB2F0024469537952795011CA395AB
:101C0000D2F3002071F0220F331F441FB395DAF393
:101C10000ED00C945B0A61307105A0E88A07B946C2
:101C200030F49B01AC01662777278827907830969F
:101C300021F020833183428353830895AA1BBB1B69
:101C400051E107C0AA1FBB1FA617B70710F0A61BBC
:101C5000B70B881F991F5A95A9F780959095BC01DD
:101C6000CD010895A1E21A2EAA1BBB1BFD010DC0D8
:101C7000AA1FBB1FEE1FFF1FA217B307E407F5073C
:101C800020F0A21BB30BE40BF50B661F771F881F18
:101C9000991F1A9469F760957095809590959B01AE
:101CA000AC01BD01CF010895EE0FFF1F0590F49127
:101CB000E02D0994FB01DC018D9101908019011048
:0A1CC000D9F3990B0895F894FFCFB3
:101CCA00B702B70200000000B90119014601060275
:101CDA007701550169012F2F22225C5C6208660C8C
:101CEA006E0A720D7409006E756C6C0074727565FB
:101CFA000066616C73650074656D70006C69676875
:081D0A00740076656E746F0031
:00000001FF
